:020000042000DA
:10000000B0D001205902002009B20020819B0020BD
:1000100059B10020B162002097DC002000000000F0
:100020000000000000000000000000009D01002012
:100030008965002000000000F1010020DBB70020EE
:10004000730200207302002073020020730200205C
:100050007302002073020020730200208B650020D1
:10006000730200209565002073020020AD6300201C
:1000700073020020BD630020CD630020DD630020FB
:1000800073020020ED630020730200207302002041
:100090007302002073020020730200209F6500207D
:1000A00073020020730200207302002073020020FC
:1000B000730200207302002073020020959B002031
:1000C000859B0020B59B0020A59B0020F1B500205A
:1000D00001B600207302002073020020730200208A
:1000E00073020020730200207302002073020020BC
:1000F0007302002021B9002073020020FD6300205C
:10010000730200207302002073020020730200209B
:1001100015BA002073020020730200207302002031
:100120000D64002073020020730200201D64002073
:10013000730200207302002073020020730200206B
:1001400073020020730200207302002045B20020D9
:10015000730200207302002073020020730200204B
:10016000730200207302002073020020730200203B
:1001700073020020730200209D6300200000000035
:1001800073020020AB650020DFF80CD006F046F8C3
:10019000004800477D3B0120B0D001202B4B19685F
:1001A0000868B0E8F04F80F30988BFF36F8F4FF015
:1001B000000080F3118870470000000006480068C6
:1001C000006880F3088862B661B6BFF34F8FBFF353
:1001D0006F8F00DF00BF00BF08ED00E0DFF80C000C
:1001E000016841F470010160704700BF88ED00E0D4
:1001F000EFF30980BFF36F8F144B1A681EF0100FD6
:1002000008BF20ED108A20E9F04F106008B44FF0CD
:10021000500080F31188BFF34F8FBFF36F8F16F03C
:10022000B1FB4FF0000080F3118808BC1968086822
:10023000B0E8F04F1EF0100F08BFB0EC108A80F34A
:100240000988BFF36F8F704700BF00BF2400001004
:10025000EFF30580704700000648804706480047D6
:10026000FEE7FEE7FEE7FEE7FEE7FEE7FEE7FEE766
:10027000FEE7FEE7BDB80020890100202DE9F0412E
:1002800004460F46D4E90661304605F0F0FB256AC6
:10029000294605F0ECFB20600121284605F03FFCD3
:1002A00086F000420146104605F033FCC4E9010522
:1002B000002F08BFBDE8F0810020E0602061606190
:1002C000BDE8F08100209FEDFE0AFE4ADFEDFE0A48
:1002D00002EB8001401C81ED080AC0B2C1ED0B0A9F
:1002E0000328F5D37047F74A002002EB8001D1EDD7
:1002F000080A91ED2D0AF4EEC00AF1EE10FA01D2CF
:1003000081ED080AD1ED0B0AF4EEC00AF1EE10FA05
:1003100001DD81ED0B0A401CC0B20328E5D3704714
:100320003EB50B46B0F8481009040091B0F84A10E9
:10033000009A09040191B0F84C1009040291E149B6
:100340004C6E121B0092019A8C6E121B0192029A43
:10035000C96E511A0291816EB0F844006A4680B2AB
:1003600011F022FF3EBDF0B5D64F00242546D7F848
:1003700094208DB02E46012A01D1C7F8946009A9B6
:10038000FFF7CEFF05A812F0F3F80599099860224F
:10039000A0EBA130099006990A98A0EBA1300A9031
:1003A00007990B98A0EBA130C8490B90081F05F0E6
:1003B00016FB0DF1240CC5489CE80E00143080E8B3
:1003C0000E00684612F084F9C04960226C31081FA3
:1003D00005F005FBBD489DE80E00803080E80E006A
:1003E00000210922D7F82C04401CC7F82C0401EB8B
:1003F000410007EB8000DDF800C0D0F84C33491C09
:1004000093FBF2F31C44D0F85033092993FBF2F329
:100410001D44D0F8543393FBF2F31E44D0F8B833A4
:1004200093FBF2F363440093D0F8BC33DDF804C0CF
:1004300093FBF2F363440193D0F8C003029B90FB5B
:10044000F2F018440290CDDB002C00DA6442002D5B
:1004500000DA6D42002E00DA76420098002800DAB9
:10046000404200900198002800DA40420190029832
:10047000002800DA40420290009900208C4200DA05
:10048000012001998D4200DA401C02998E4200DA67
:10049000401CD7F82C14092900DB401C04280DD17E
:1004A00097F8240402280BD901468648D7F8282457
:1004B000643013F09DF8012013F094F80DB0F0BDF6
:1004C00013F058F8FAE72DE9F0417E4D00272DEDA5
:1004D000048B06463C4685F824749FED7D9B9FED7A
:1004E0007E8BC5F8287405EB8400D5ED0F0A90EDDE
:1004F000330AB4EEE00AF1EE10FA1EDB95ED140BB0
:1005000053EC182B51EC100B05F0B6FB41EC100B23
:100510000EF0E2F853EC192B51EC100B05F00EFD28
:100520000BD295F824040121401C85F82404D5F849
:100530002804A1400843C5F82804641CE4B2032C35
:10054000D1D395F82404B8B3002406EBC40090ED91
:10055000000B51EC100B05F0BEFC05EB8401641C94
:10056000E4B24866032CF0D3C5F82C74A8680428BC
:1005700002DA95F82404A86095F8240403281BD116
:100580005749E868884217DC95ED140B53EC182B9B
:1005900051EC100B05F070FB41EC100B0EF09CF8C9
:1005A00053EC192B51EC100B05F0C8FC04D2A868D1
:1005B000032801D10420A8604A49286988421DDA2D
:1005C0004949E868884219DC95ED140B53EC182B67
:1005D00051EC100B05F050FB41EC100B0EF07CF8C9
:1005E0009FED421B51EC100B53EC112B05F0A6FCB8
:1005F00004D2A868042801D10520A860BDEC048BB2
:10060000BDE8F0812DE9F0412E4C0746D4F8A40452
:10061000012802D000252846F2E73649F7EE000A05
:10062000A1F1E800B7EE000A064600F0BCFD254A3D
:100630003046503202F5AC7101F057F80500EAD0AF
:100640006068401C606094ED140B51EC100B05F0D9
:1006500042FCB96E12F0BBFB00EE100ADFED260A79
:10066000B8EEC00A20EE200A10EE100A05F052FC87
:10067000C4E9140194ED6A0B51EC100B05F02BFC4E
:10068000A06594ED6C0B51EC100B05F024FCE065BB
:1006900094ED6E0B51EC100B05F01DFC206694EDF3
:1006A000680B9FED161B51EC100B53EC112B05F052
:1006B0005DFCB0D231469FED130AF0EE400A23E014
:1006C00000401CC6D8BA012000401C4628BE0120AC
:1006D0009A9999999999B93F000000000000F03F5C
:1006E000AE47E13D00007A43BC74933C9CC420B00B
:1006F0007268913FA0BC012000008037000000001C
:100700000070A740CDCCCC3E084600F04CFD82E7FF
:10071000D0ED030A90ED040A00210122F4EEC00A94
:100720000223F1EE10FA12DD90ED051AF4EEC10A83
:10073000F1EE10FA0BDDB4EEC10A0164F1EE10FA2D
:1007400002DBC0E911237047C0E911327047B4EEF3
:10075000E00AF1EE10FA12DD90ED051AB4EEC10ACE
:10076000F1EE10FA0BDDF4EEC10A0264F1EE10FABC
:1007700002DBC0E911137047C0E911317047F4EE94
:10078000C00A0364F1EE10FA02DBC0E911127047EF
:10079000C0E911217047002319469FEDFE0AC3648A
:1007A00000EB8102491C82ED000A82ED090A03294F
:1007B000F6DB0121C0E91D13704730B50446142053
:1007C000A0650A202066002584F870502046FFF7B7
:1007D000E2FF656530BD70B52DED048B86B06946CE
:1007E000FFF79EFD9FEDEC8B1FED3D9A00246E46BA
:1007F00003AD56F8240000EE100A05EB8400B8EEB5
:10080000C00A20EE090A80ED000A20EE000A10EE70
:10081000100A05F07FFB53EC182B05F08CF941EC26
:10082000180B641C032CE4DBB0EE480AF0EE680AF7
:100830000EF008FADA4EB0EE408AF0EE608A00243C
:1008400055F8240005F066FB53EC182B05F08CFAE4
:1008500005F0A4FB00EE100A06EB840000F58060B2
:10086000641CD0ED0C0A032C30EE200A80ED0C0A3B
:10087000E6DBD6F88404401CC6F884040120C6F8E0
:10088000AC0406B0BDEC048B70BD70B505462DED13
:10089000028B86B004AA03A9684612F0EDF89FED1A
:1008A000BE8B00246E4606EB840090ED000A20EE1D
:1008B000000A10EE100A05F02DFB53EC182B05F082
:1008C0003AF941EC180B641C032CECDBB0EE480A3F
:1008D000F0EE680A0EF0B6F9B0EE408AF0EE608AEB
:1008E000002456F8240005F015FB53EC182B05F0F6
:1008F0003BFA05F053FB00EE100A05EB8400641C84
:10090000D0ED000A032C30EE200A80ED000AE8DB6F
:10091000686D401C68650120E86706B0BDEC028B7D
:1009200070BDF0B504460021F7EE001A9FED992A3C
:1009300094ED140A04EB8100B8EEC01AD0ED000A61
:1009400080EE810AB5EEC00AF1EE10FA02DBB0EEDD
:10095000401A01E0B1EE401AD0ED060AF5EEC00AE9
:10096000F1EE10FA01DAF1EE600A71EE600AC0ED04
:100970000C0A80ED060A94ED0F1AD0ED092A71EEEB
:10098000610A00EEA20AC0EE010AC0ED090AF5EE06
:10099000C00AF1EE10FA01DAF1EE600AC0ED030AC6
:1009A000491C80ED002A0329C2DB2046FFF7B0FE78
:1009B000E06CB0F57A7F01DA401CE06494F8707066
:1009C00000210526042303250122206C062F09D2CD
:1009D000DFE807F00309102B52376267A267E16472
:1009E00084F87020F0BDE06F0128FBD1022084F86C
:1009F00070000DE004EB8000D4ED190A90ED030ABD
:100A0000B4EEE00AF1EE10FA04DB84F8703031E065
:100A1000A167F0BDD4ED1A0AB4EEE00AF1EE10FAC7
:100A200022D934E06267A267F0BD04EB8000D4ED08
:100A3000190A90ED030AB4EEE00AF1EE10FAE4DAD6
:100A4000F0BD04EB8000D4ED1A0A90ED030AB4EE79
:100A5000E00AF1EE10FA07D9006B524EB04206D907
:100A6000216EE06C8842EBDB84F87050DAE784F8A2
:100A70007030E1646167CBE704EB8000D4ED1B0AC2
:100A800090ED030AB4EEE00AF1EE10FAD8D884F83B
:100A90007060E164C6E710B5044600EE104AB8EE97
:100AA000C00ADFED410A20EE200A9FED401AC0EE99
:100AB000010AB6EE000A20EE800A10EE100A05F0D8
:100AC00029FA41EC100B0DF0FBFC9FED391B51ECAA
:100AD000100B53EC112B05F0D5F805F0FCF901468D
:100AE0002F48C0E9204110BD2DE9F04F00242DED25
:100AF000028B91B00546049405940694C06E44F6AA
:100B00002061274E884206DBD6F88010884210D03C
:100B1000FFF7C1FF0DE0D6F848231044C6F848039C
:100B200088427DDBE96E814201D0FFF7B4FFC6F851
:100B30004843286BC6F8B0042846FFF74CFE06F57C
:100B4000906003C8814204DB1B48FFF7EAFEC6F849
:100B50008444D6F8A804012802D12846FFF703FCF4
:100B6000D6F8A40401285BD104A811F0CFFD9DEDB7
:100B7000040ADDED050A20EE000A00EEA00ADDED14
:100B8000060A00EEA00A0EF09AF886ED030ADFEDE1
:100B90000B0A15E00000000000000000000000004B
:100BA000D8BA0120CDCC4CBD368D274000247449E5
:100BB000000000000000D04108BF01200000804676
:100BC00020EE200AC149A146ADF82040BDEEC00A82
:100BD000099110EE100AADF81C00ADF81E4007A8F0
:100BE00002F0C8FD684611F0D3FD316F009812F095
:100BF000EEF80446716F019812F0E9F80444B16F01
:100C0000029812F0E4F80444F16F039812F0DFF850
:100C100004EB00089DE80F0000240DF1340A00E009
:100C2000A2E006F170079FEDAA8A87E80F000DF198
:100C3000280B05EB4407A96E37F8480F000412F0A3
:100C4000C6F800EE100A4AF8240006EB8400B8EE5D
:100C5000C00A20EE080A80ED050A388801044BF826
:100C60002410641CE4B2032CE3D398480AA9E838A2
:100C7000044600F068FB3168D6F82803884273DB2D
:100C800095ED390AD6ED360AB8EEC00AF5EEC00A7F
:100C900020EE080AF1EE10FA05D070EE600AF0EED0
:100CA000E00AC6ED370A86ED360AB068062818D283
:100CB000DFE800F0030303030D249FED860AC8203C
:100CC00086ED0E0AB7EE000A86ED0F0A08E09FEDEA
:100CD000820A86ED0E0A9FED810A642086ED0F0AD6
:100CE0003064288EC005099812D402F052FC05F039
:100CF000AAF800EE100A5FED530A11E09FED780AA2
:100D000086ED0E0A9FED770A322086ED0F0AE7E79F
:100D100002F099FB05F097F800EE100ADFED720A79
:100D2000982180EE201A86ED041A099804F07EFEC0
:100D3000D6F88410414543DA96ED040AB5EEC00AB0
:100D4000F1EE10FA3CDDD6ED0E0AB4EEE00AF1EE5B
:100D500010FA35D2316C7068884206DA2846FFF7FF
:100D600051FC002859D00CE056E06049D6F8B0009C
:100D7000884206DB2846FFF745FC00284DD0C6F820
:100D80000490002006EB8001401C91ED050AC0B2E2
:100D900081ED2D0A0328F5D3FFF7A5FA002006EB15
:100DA0008001401C91ED080AD1ED0B0AC0B2032866
:100DB00030EE600A81ED330AF1D34D48FFF783FB33
:100DC000002006EB8001401C91ED260AD1ED050ABA
:100DD000C0B2032830EE600AB0EEC00A81ED290AE5
:100DE000EFD396ED290AD6ED2A0A002030EE200A2C
:100DF000D6ED2B0A30EE200A86ED2C0A06EB800198
:100E0000401C91ED050AC0B281ED260A0328F5D3F6
:100E1000E821204604F00AFE002011B0BDEC028B50
:100E2000BDE8F08F10B54FF49761324804F0FEFD35
:100E3000304C0A20206040072067FFF743FA04F592
:100E40008660FFF7BAFC2068C4F880049FED2A0A88
:100E500004F580601E2180ED1B0A9FED280AC4F86E
:100E60008C1480ED260A9FED260A80ED250A9FED61
:100E7000250A80ED270A192002F02CFF002010BD62
:100E8000012240F25231AFF29F3012F049BAAFF274
:100E9000A73012F011BE10B5FFF7C4FF002805D12E
:100EA000AFF22300BDE8104012F0FABA10BD10B541
:100EB000AFF2CB3012F000FEAFF23B00BDE81040C5
:100EC00012F02CBE0B4880687047000088BD0120DE
:100ED000000080370080BB44000096439A99993FF8
:100EE000000070423333B33F0050C347CDCC4C3D7C
:100EF00080BC0120D8BA012000000042CDCCCC3EFD
:100F0000CDCC4C3F3333333FFE4880ED3A0A704737
:100F10002DE9F047DFF8EC9300262DED0A8B04460F
:100F2000B0EE408AF0EE608A884635463746D9F8FA
:100F3000AC0004F09EFF53EC182B04F0FFFF6FD3BE
:100F4000D9F8B00004F095FF53EC182B05F00EF81B
:100F5000F5D3B4F90000B4F90610401A04F089FF83
:100F600053EC182B04F0EAFF00D20126B4F90E006E
:100F7000B4F91410401A04F07CFF53EC182B04F061
:100F8000DDFF00D2761CB4F91C00B4F92210401A1F
:100F900004F06FFF53EC182B04F0D0FF00D2761C46
:100FA0009FEDD90B012E3BDC53EC102B51EC180BB1
:100FB00004F068FE8946064649EC180BB4F90000B7
:100FC000B4F90610401A04F054FF53EC182B04F047
:100FD000CDFF00D20125B4F90E00B4F9141049EC8C
:100FE000186B401A04F045FF53EC182B04F0BEFFB9
:100FF00000D26D1CB4F91C00B4F9221049EC186B36
:10100000401A04F036FF53EC182B04F0AFFF00D267
:101010006D1C002D05DD0220BDEC0A8BBDE8F087BC
:1010200065E000269FEDBACB06EB460904EB890587
:10103000B5F90A0004F01DFF98ED048B53EC182B52
:1010400004F01AFE41EC190BB5F9040004F011FF8D
:1010500053EC182B04F010FE53EC192B04F012FE85
:1010600041EC190BB5F9080004F003FF98ED028B71
:1010700053EC182B04F000FE41EC1A0BB5F90200FA
:1010800004F0F7FE53EC182B04F0F6FD53EC1A2B8A
:1010900004F0F8FD41EC1A0BB5F9060004F0E9FE86
:1010A00098ED008B53EC182B04F0E6FD41EC1B0B84
:1010B00034F9290004F0DDFE53EC182B04F0DCFDBC
:1010C00053EC1B2B04F0DEFD53EC1A2B04F033FD24
:1010D00053EC192B04F02FFD53EC1C2B04F02EFFC6
:1010E00000D27F1C761C032E9EDB022F01DA01202A
:1010F00092E7002090E788490A684B68D00180EAAF
:10110000D20080EA031048608B68520380EAC30370
:1011100082EA5312520282EAD0208B600860704744
:1011200010B52DED048BF0EE408AFFF7E4FF00EEE2
:10113000100AB8EE400ADFED790A20EE200A9FED92
:10114000789A20EE090A0DF01FFAB0EE408AFFF7F8
:10115000D2FF00EE100AB8EE400A20EE090AB5EE02
:10116000C00AF1EE10FA01D1B7EE000A10EE100A33
:1011700004F0D0FE41EC100B0DF0BAFA9FED691BA4
:1011800051EC100B53EC112B04F07CFD04F006FF26
:1011900000EE100A0DF093FD20EE280A20EE080A5A
:1011A000BDEC048B10BD2DE9F04105462DED048BFF
:1011B000B0EE608AF0EE408A0F4618EE100A04F096
:1011C000A9FE97ED301B53EC112B04F05BFD41ECB5
:1011D000190B18EE900A04F09DFE95ED301B53ECB0
:1011E000112B04F04FFD53EC192B04F0A4FC002448
:1011F000C5E9300118EE100A04F08CFE07EBC408B4
:1012000098ED001B53EC112B04F03CFD41EC190B45
:1012100018EE900A04F07EFE05EBC40696ED001B66
:1012200053EC112B04F02EFD53EC192B04F083FC2E
:10123000C6E9000118EE100A04F06CFE98ED241BBC
:1012400053EC112B04F01EFD41EC190B18EE900A23
:1012500004F060FE96ED241B53EC112B04F012FDFC
:1012600053EC192B04F067FC641CC6E92401062C1E
:10127000C0DB002418EE100A04F04CFE41EC100B09
:1012800007EBC40090ED121B51EC100B53EC112B2B
:1012900004F0F8FC41EC190B18EE900A04F03AFE49
:1012A00005EBC40696ED121B53EC112B04F0EAFC7F
:1012B00053EC192B04F03FFC641CC6E91201092C05
:1012C000D8DB002418EE100A04F024FE41EC100BC9
:1012D00007EBC40090ED0C1B51EC100B53EC112BE1
:1012E00004F0D0FC41EC190B18EE900A04F012FE49
:1012F00005EBC40696ED0C1B53EC112B04F0C2FC5D
:1013000014E0000048C2012000000000000004407A
:10131000000000000000000028920120DB0FC940FF
:101320000000802F00000000000000C053EC192BCB
:1013300004F001FC641CC6E90C01032CC2DBBDEC0B
:10134000048BBDE8F0812DE9F04F04462DED068BAE
:1013500083B00D46086804F08CFD41EC1A0B6868F8
:1013600004F087FD41EC190BA86804F082FD41EC04
:10137000180B94ED300B9FEDFE1B51EC100B53EC52
:10138000112B04F0D8FBC4E9300194ED0C0B53ECA5
:101390001A2B51EC100B04F0CEFBC4E90C0194EDB8
:1013A0000E0B53EC192B51EC100B04F0C4FBC4E9E9
:1013B0000E0194ED100B53EC182B51EC100B04F0B4
:1013C000BAFBC4E9100153EC1A2B51EC1A0B04F0D0
:1013D00059FC029194ED001B064653EC112B04F0CE
:1013E000AAFBC4E9000153EC192B51EC1A0B04F0D1
:1013F00049FC894649EC100B94ED021B054653EC61
:10140000112B51EC100B04F096FBC4E9020153ECD4
:10141000182B51EC1A0B04F035FC8B464BEC100BDF
:1014200094ED041B804653EC112B51EC100B04F08F
:1014300082FBC4E9040153EC192B51EC190B04F0A5
:1014400021FC019194ED061B074653EC112B04F08F
:1014500072FBC4E9060153EC182B51EC190B04F094
:1014600011FC009194ED081B824653EC112B04F003
:1014700062FBC4E9080153EC182B51EC180B04F083
:1014800001FC94ED0A1B53EC112B04F054FBC4E94E
:101490000A01029953EC1A2B41EC106B51EC100B22
:1014A00004F0F0FB94ED121B53EC112B04F043FB02
:1014B00049EC105BC4E9120153EC192B51EC100BF1
:1014C00004F0E0FB94ED141B53EC112B04F033FB00
:1014D0004BEC108BC4E9140153EC182B51EC100B9E
:1014E00004F0D0FB94ED161B53EC112B04F023FBFE
:1014F00049EC105BC4E9160153EC1A2B51EC100BAC
:1015000004F0C0FB94ED181B53EC112B04F013FBFB
:10151000C4E91801019953EC192B41EC107B51ECF3
:10152000100B04F0AFFB94ED1A1B53EC112B04F0DD
:1015300002FBC4E91A010099554641EC10AB0E4676
:1015400053EC182B51EC100B04F09CFB94ED1C1B7E
:1015500053EC112B04F0EFFAC4E91C0153EC1A2BE5
:1015600051EC180B04F08EFB53EC1A2B04F08AFBA1
:1015700094ED1E1B53EC112B04F0DDFA46EC105BCE
:10158000C4E91E0153EC192B51EC100B04F07AFB4B
:1015900094ED201B53EC112B04F0CDFAC4E920018B
:1015A00053EC182B51EC180B04F06CFB894649ECFA
:1015B000100B074653EC182B51EC100B04F062FB98
:1015C00094ED221B53EC112B04F0B5FAC4E922016F
:1015D00053EC1A2B51EC1A0B04F054FB884648ECE0
:1015E000100B054653EC1A2B51EC100B04F04AFB80
:1015F00053EC1A2B04F046FB94ED241B53EC112BF7
:1016000004F099FAC4E9240153EC192B51EC190B9D
:1016100004F038FB8A464AEC100B064653EC192BB3
:1016200051EC100B04F02EFB53EC192B04F02AFBA9
:1016300094ED261B53EC112B04F07DFA49EC107B42
:10164000C4E9260153EC182B51EC100B04F01AFBE3
:1016500053EC182B04F016FB94ED281B53EC112BC4
:1016600004F069FA48EC105BC4E9280153EC192B2B
:1016700051EC100B04F006FB53EC192B04F002FBA9
:1016800094ED2A1B53EC112B04F055FA48EC105B37
:10169000C4E92A0153EC182B51EC100B04F0F2FAB8
:1016A00053EC182B04F0EEFA94ED2C1B53EC112B99
:1016B00004F041FA4AEC106BC4E92C0153EC182BEE
:1016C00051EC100B04F0DEFA53EC182B04F0DAFAAC
:1016D00094ED2E1B53EC112B04F02DFAC4E92E01CE
:1016E00003B0BDEC068BBDE8F08F2DE9F04F9346BB
:1016F0002DED108B0D46044693B090ED0CEB53ECA2
:101700001E2B51EC1E0B04F0BDFA94ED000B41ECC6
:10171000190B8DED080B94ED308B53EC102B51EC25
:10172000180B04F0AFFA53EC192B04F0A5FA94ED62
:101730000EDB41EC1F0B53EC1D2B51EC1D0B04F089
:10174000A1FA94ED060B41EC190B8DED060B53EC51
:10175000102B51EC180B04F095FA53EC192B04F0F4
:101760008BFA41EC100B8DED040B94ED10CB03E0E4
:10177000000000000000F03F53EC1C2B51EC1C0B50
:1017800004F080FA94ED0A0B41EC190B8DED020B7D
:1017900053EC102B51EC180B04F074FA53EC192B8A
:1017A00004F06AFA41EC110B53EC1D2B8DED001B7C
:1017B00051EC1E0B04F066FA94ED020B41EC190B90
:1017C00053EC102B51EC180B04F05CFA53EC192B72
:1017D00004F052FA41EC1B0B53EC1C2B51EC1E0B8A
:1017E00004F050FA94ED040B41EC190B53EC102B60
:1017F00051EC180B04F046FA53EC192B04F03CFAA8
:1018000041EC1A0B53EC1C2B51EC1D0B04F03AFA73
:1018100094ED080B41EC190B53EC102B51EC180B09
:1018200004F030FA53EC192B04F026FA9DED020B6C
:1018300041EC190B53EC102B51EC1E0B04F022FA67
:1018400041EC110B51EC180B8DED101B94ED160BA8
:1018500053EC102B04F016FA41EC110B51EC1E0B5B
:101860008DED0E1B9DED060B53EC102B04F00AFAC8
:1018700041EC110B51EC180B8DED0C1B94ED140B7E
:1018800053EC102B04F0FEF941EC110B51EC1E0B44
:101890008DED0A1B9DED080B53EC102B04F0F2F9B3
:1018A00094ED120B41EC1E0B53EC102B51EC180B6A
:1018B00004F0E8F953EC1E2B04F0DEF99DED0A1B51
:1018C00053EC112B04F037F99DED0C1B53EC112B4D
:1018D00004F0D2F99DED0E1B53EC112B04F02BF903
:1018E0009DED101B53EC112B04F0C6F99FEDFE1B70
:1018F00053EC112B04F0C6F99DED020B41EC1E0BCD
:1019000053EC102B51EC1D0B04F0BCF941EC110B06
:1019100051EC180B8DED101B94ED1C0B53EC102BA0
:1019200004F0B0F941EC110B51EC1D0B8DED0E1BC9
:101930009DED060B53EC102B04F0A4F941EC110BB8
:1019400051EC180B8DED0C1B94ED1A0B53EC102B76
:1019500004F098F941EC110B51EC1D0B8DED0A1BB5
:101960009DED080B53EC102B04F08CF994ED180B43
:1019700041EC1D0B53EC102B51EC180B04F082F9C9
:1019800053EC1D2B04F078F99DED0A1B53EC112B41
:1019900004F0D1F89DED0C1B53EC112B04F06CF905
:1019A0009DED0E1B53EC112B04F0C5F89DED101BA3
:1019B00053EC112B04F060F99FEDCB1B53EC112B72
:1019C00004F060F99DED020B41EC1D0B53EC102B64
:1019D00051EC1C0B04F056F941EC110B51EC180BB7
:1019E0008DED021B94ED220B53EC102B04F04AF901
:1019F00041EC110B51EC1C0B8DED0A1B9DED060B00
:101A000053EC102B04F03EF941EC110B51EC180B88
:101A10008DED0C1B94ED200B53EC102B04F032F9E0
:101A200041EC110B51EC1C0B8DED061B9DED080BD1
:101A300053EC102B04F026F994ED1E0B41EC1C0B1B
:101A400053EC102B51EC180B04F01CF953EC1C2B2D
:101A500004F012F99DED061B53EC112B04F06BF80A
:101A60009DED0C1B53EC112B04F006F99DED0A1BA8
:101A700053EC112B04F05FF89DED021B53EC112B7E
:101A800004F0FAF89FED981B53EC112B04F0FAF8D0
:101A90009DED040B41EC180B53EC102B51EC1F0B7C
:101AA00004F0F0F810919DED001B824653EC112BD1
:101AB00004F0E8F841EC110B53EC192B8DED0A1BE7
:101AC00051EC1F0B04F0DEF853EC192B04F0DAF89C
:101AD00041EC110B53EC1A2B8DED081B9DED040B03
:101AE00051EC100B04F0CEF8814653EC1A2B1191F7
:101AF00004F0C8F841EC110B8DED061B9FED7C0B3B
:101B000051EC1B0B53EC102B04F0BCF853EC1A2BCC
:101B100004F0B8F853EC192B04F0B4F89DED001B59
:101B200041EC1C0B53EC1B2B51EC110B04F0AAF8ED
:101B3000074653EC1B2B029104F0A4F853EC1C2B2A
:101B400004F09AF89DED061B53EC112B03F0F3FF04
:101B50009DED081B53EC112B03F0EDFF9DED0A1BCF
:101B600053EC112B04F088F841EC1C0B9FED620B39
:101B700053EC102B04F0E2F97DD053EC192B51EC0F
:101B80001B0B04F07FF853EC182B04F07BF841ECAE
:101B9000110B53EC1D2B8DED0E1B029941EC107BAC
:101BA00051EC100B04F06EF841EC110B8DED0C1B99
:101BB0009DED000B53EC102B9DED040B51EC100B25
:101BC00004F060F853EC1E2B04F05CF841EC110BB0
:101BD00053EC192B8DED081B51EC190B04F052F846
:101BE00053EC1E2B04F04EF841EC110B53EC1D2B63
:101BF0008DED0A1B51EC190B04F044F841EC110B6C
:101C000053EC182B8DED061B9DED040B51EC100BC6
:101C100004F038F89DED061B53EC112B04F02CF862
:101C200053EC1A2B04F02EF89DED0A1B53EC112BEC
:101C300003F081FF9DED081B53EC112B04F01CF801
:101C40009DED0C1B53EC112B03F075FF9DED0E1B4E
:101C500053EC112B04F010F841EC100B53EC1A2B41
:101C60008DED060B51EC1B0B04F00CF88846064674
:101C700048EC100B00E065E153EC182B51EC100B15
:101C800004F000F841EC110B53EC1E2B8DED041BFE
:101C9000029941EC107B51EC100B03F0F3FF41EC87
:101CA000110B51EC1F0B8DED021B9DED000B53EC46
:101CB000102B03F0E7FF53EC1D2B03F0E3FF41EC87
:101CC000110B53EC1A2B8DED081B51EC1A0B03F082
:101CD000D9FF53EC1D2B03F0D5FF41EC110B53EC56
:101CE0001E2B8DED001B0BE0000000000000E03F0C
:101CF00000000000000000400000000000000000A4
:101D000051EC1A0B03F0BEFF41EC1A0B53EC182BED
:101D100051EC1F0B03F0B6FF53EC1A2B03F0ACFF92
:101D200053EC192B03F0AEFF9DED001B53EC112B70
:101D300003F001FF9DED081B53EC112B03F09CFFFA
:101D40009DED021B53EC112B03F0F5FE9DED041BE2
:101D500053EC112B03F090FF41EC100B53EC1D2BB7
:101D60008DED040B48EC106B51EC100B03F08AFF67
:101D700041EC110B53EC1E2B8DED001B119941EC26
:101D8000109B51EC100B03F07DFF41EC110B53EC59
:101D9000182B8DED021B109941EC10AB51EC100B80
:101DA00003F070FF41EC1A0B53EC1B2B51EC1B0B97
:101DB00003F068FF53EC182B03F064FF41EC180BA1
:101DC00053EC1E2B51EC1B0B03F05CFF41EC1B0B87
:101DD00053EC1D2B51EC1F0B03F054FF53EC1B2B4A
:101DE00003F04AFF53EC192B03F04CFF53EC182B74
:101DF00003F0A1FE53EC1A2B03F03EFF9DED021BF6
:101E000053EC112B03F097FE9DED001B53EC112BAF
:101E100003F032FF9DED060B41EC190B53EC1C2B2C
:101E200051EC100B03F0A0FF41EC180B53EC1C2BF2
:101E300085ED008B9DED040B51EC100B03F094FF2E
:101E400041EC1A0B53EC1C2B85ED02AB51EC190B3A
:101E500003F08AFF41EC190B85ED049B94ED100B08
:101E600053EC102B03F00EFF94ED0E0B41EC1B0B0B
:101E700053EC102B51EC1A0B03F004FF94ED0C0BF8
:101E800041EC1C0B53EC102B51EC180B03F0FAFE39
:101E900053EC1C2B03F04FFE53EC1B2B03F04BFEBB
:101EA0001FED6D1B53EC112B03F0ECFE94ED061BA4
:101EB00094ED000B41EC1B0B53EC112B51EC100B70
:101EC00003F039FE94ED0A1B53EC112B03F033FEA3
:101ED00053EC1B2B03F0D0FE94ED301B53EC112B75
:101EE00003F042FF41EC1B0B53EC192B51EC190B87
:101EF00003F0C8FE41EC190B53EC1A2B51EC1A0BF2
:101F000003F0C0FE41EC1A0B53EC182B51EC180BEC
:101F100003F0B8FE53EC1A2B03F00DFE53EC192B13
:101F200003F009FE53EC1B2B03F005FE41EC100BF4
:101F30000CF088FE8BED000B012013B0BDEC108B74
:101F4000BDE8F08F0020F8E72DE9F04F0D462DEDAC
:101F5000108B04468BB091ED00AB53EC1A2B51EC77
:101F60001A0B03F08FFE94ED0CCB53EC1C2B03F0FB
:101F700089FE53EC1C2B03F085FE94ED30FB41EC05
:101F8000180B53EC1A2B51EC1F0B03F07BFE8B4606
:101F90004BEC100B074653EC1A2B51EC100B03F0D3
:101FA00071FE94ED00EB53EC1E2B03F06BFE53EC33
:101FB000182B03F061FE41EC190B53EC1E2B51EC76
:101FC0001A0B03F05FFE53EC1C2B03F05BFE4BEC93
:101FD000107B94ED121B41EC180B53EC112B51ECC0
:101FE000100B03F04FFE53EC192B03F048FE53EC9B
:101FF000182B03F0A0FD41EC1B0B1FEDC30B51ECA4
:102000001A0B53EC102B03F03DFE894649EC100BE4
:1020100095ED029B064653EC192B51EC100B03F087
:1020200031FE53EC1C2B03F02DFE94ED0EDB53EC34
:102030001D2B03F027FE41EC180B1FEDD30B51ECC9
:102040001F0B53EC102B03F01DFE824653EC1A2B92
:10205000069103F017FE53EC192B03F013FE94EDD9
:10206000021B53EC112B03F00DFE53EC1B2B03F062
:1020700062FD53EC182B03F0FFFD41EC180B53EC01
:102080001C2B51EC1A0B03F0FDFD049194ED06BBE3
:10209000804653EC1B2B03F0F5FD41EC110B4BEC90
:1020A000107B8DED001B94ED141B51EC100B53ECC9
:1020B000112B03F0E7FD53EC182B03F0E0FD9DED31
:1020C000001B53EC112B03F036FD41EC110B49ECD6
:1020D000106B8DED001B95ED048B51EC100B53EC48
:1020E000182B03F0CFFD53EC1C2B03F0CBFD94ED2C
:1020F00010CB53EC1C2B03F0C5FD41EC110B53EC42
:102100001A2B8DED021B069941EC10AB51EC100B14
:1021100003F0B8FD53EC182B03F0B4FD94ED041B51
:1021200053EC112B03F0AEFD9DED001B53EC112B76
:1021300003F001FD9DED021B53EC112B03F09CFD00
:1021400041EC100B8DED000B049994ED0AAB41ECC2
:10215000108B53EC1A2B51EC100B03F093FD41EC58
:10216000110B4BEC107B8DED021B94ED161B51EC0B
:10217000100B53EC112B03F085FD9DED001B53EC70
:10218000112B03F07CFD9DED021B53EC112B03F092
:10219000D2FC41EC110B8DED001B9FEDFE0B51ECC1
:1021A0001E0B53EC102B03F06DFD53EC1E2B03F0B4
:1021B00069FD41EC110B8DED021B9FEDF60B51EC0F
:1021C0001F0B53EC102B03F05DFD059194ED241BC8
:1021D000814653EC112B03F055FD9DED001B53EC94
:1021E000112B03F0A8FC9DED021B53EC112B03F007
:1021F00043FD41EC110B53EC1E2B8DED001B51ECFC
:10220000190B03F03FFD53EC1D2B03F03BFD41EC9C
:10221000110B53EC192B8DED081B51EC1F0B03F028
:1022200031FD039194ED181B064653EC112B03F07E
:1022300029FD9DED001B53EC112B03F020FD9DEDBE
:10224000081B53EC112B03F076FC41EC110B8DEDC8
:10225000001B9FEDD20B51EC1E0B53EC102B03F027
:1022600011FD8B464BEC100B054653EC1B2B51EC30
:10227000100B03F007FD41EC110B8DED081B9FEDDA
:10228000C70B51EC1F0B53EC102B03F0FBFC04911C
:1022900094ED2A1B804653EC112B03F0F3FC9DEDCB
:1022A000001B53EC112B03F046FC9DED081B53EC77
:1022B000112B03F0E1FC41EC110B53EC1E2B8DEDC7
:1022C000001B51EC180B03F0DDFC53EC1C2B03F04E
:1022D000D9FC41EC1E0B53EC182B51EC1F0B03F0F7
:1022E000D1FC029194ED1E1B074653EC112B03F019
:1022F000C9FC9DED001B53EC112B03F0C0FC53EC0B
:102300001E2B03F018FC4BEC105B41EC1F0B53EC45
:102310001A2B51EC100B03F0B5FC41EC1E0B049989
:1023200094ED2C1B41EC108B53EC112B51EC100B4A
:1023300003F0A8FC53EC1F2B03F0FDFB53EC1E2B0A
:1023400003F09AFC41EC1F0B53EC192B51EC190BC9
:1023500003F098FC53EC1D2B03F094FC53EC1D2B65
:1023600003F090FC41EC1E0B039953EC192B41EC4C
:10237000106B51EC100B03F085FC53EC1B2B03F09E
:1023800081FC53EC1F2B03F0D6FB53EC1E2B03F008
:1023900073FC41EC1F0B53EC1B2B51EC190B03F09E
:1023A00071FC53EC1D2B03F06DFC41EC1E0B0399EB
:1023B00094ED1A1B41EC106B53EC112B51EC100BEC
:1023C00003F060FC53EC1F2B03F059FC53EC1E2B65
:1023D00003F0B1FB41EC1F0B9FED720B51EC190B9D
:1023E00053EC102B03F04EFC53EC182B03F04AFC7B
:1023F00053EC1D2B03F046FC53EC1C2B03F042FC6A
:1024000041EC1E0B069953EC192B41EC10AB51EC2F
:10241000100B03F037FC53EC182B03F033FC94ED56
:10242000081B53EC112B03F02DFC53EC1F2B03F076
:1024300082FB53EC1E2B03F01FFC41EC1E0B53ECF4
:102440001D2B51EC190B03F01DFC53EC1A2B03F060
:1024500019FC41EC190B039994ED1C1B41EC106B1A
:1024600053EC112B51EC100B03F00CFC53EC1E2B16
:1024700003F005FC53EC192B03F05DFB41EC1D0B45
:102480009FED44EB51EC1B0B53EC1E2B03F0FAFBBE
:1024900053EC1B2B03F0F6FB41EC190B059994ED63
:1024A000261B41EC109B53EC112B51EC100B03F04D
:1024B000E9FB53EC1D2B03F03EFB53EC192B03F00F
:1024C000DBFB41EC1D0B53EC1B2B51EC180B03F009
:1024D000D9FB53EC1C2B03F0D5FB41EC190B0299F3
:1024E00094ED201B41EC107B53EC112B51EC100BA5
:1024F00003F0C8FB53EC1D2B03F0C1FB53EC192B6D
:1025000003F019FB9FED250B41EC190B53EC102B3D
:1025100051EC1B0B03F0B6FB53EC1A2B03F0B2FB90
:1025200041EC1B0B049994ED2E1B41EC108B53ECEA
:10253000112B51EC100B03F0A5FB53EC192B03F0FE
:10254000FAFA53EC1B2B03F097FB41EC1B0B53ECFB
:10255000182B51EC180B03F095FB53EC1C2B03F0DC
:1025600091FB53EC1C2B03F08DFB41EC190B0299F2
:1025700053EC182B41EC107B51EC100B03F082FB59
:1025800053EC1A2B03F07EFB53EC1B2B03F0D3FA16
:102590000CE00000000000000000D03F0000000040
:1025A0000000E03F000000000000004053EC192B49
:1025B00003F062FB41EC190B53EC1A2B51EC180B96
:1025C00003F060FB53EC1C2B03F05CFB41EC180B9D
:1025D000029994ED221B41EC107B53EC112B51EC32
:1025E000100B03F04FFB53EC192B03F048FB53EC9B
:1025F000182B03F0A0FA41EC180B53EC1E2B51ECF6
:102600001A0B03F03FFB53EC1A2B03F03BFB41EC9E
:10261000190B059994ED281B41EC109B53EC112BE1
:1026200051EC100B03F02EFB53EC182B03F083FA44
:1026300053EC192B03F020FB41EC100B0BB07DE4A5
:1026400030B50446B0F88C0089B000040690B4F8A8
:102650008E000D4600040790B4F890008834000402
:10266000089002A80FF050FF029906982B46401AD6
:1026700006900399079806AA401A079004990898AB
:10268000401A08902088616A80B20FF08DFD09B071
:1026900030BDF0B50D462DED048B87B06946FFF7D0
:1026A000CFFF9FEDFE8B00246F469FEDFE9A03AE99
:1026B00057F8240000EE100A06EB8400B8EEC00ABA
:1026C00020EE090A80ED000A20EE000A10EE100A42
:1026D00003F020FC53EC182B03F02DFA41EC180BFF
:1026E000641C032CE4DBB0EE480AF0EE680A0CF040
:1026F000A9FAB0EE408AF0EE608A002456F8240071
:1027000003F008FC53EC182B03F02EFB03F046FCFF
:1027100000EE100A05EB8400641CD0ED000A032CC7
:1027200030EE200A80ED000AE8DB686D401C686529
:1027300010F07EFAE86707B0BDEC048BF0BD2DE920
:10274000F04104460FF08AFF40BB0FF00BFF042856
:1027500024D0D54920460E46FFF79BFFD34DD5E93F
:102760005C01814205DB3046FEF7DBF80020C5F84E
:102770007401208E4FF00406C00515D504F1180031
:102780000FF05EFF8009B0F5C87F0AD2D5F8B80017
:10279000002850DD401EC5F8B8004AE00120BDE821
:1027A000F081C5F8B86044E0D4F8A010D5F8140161
:1027B000081A01D4034600E04342BB4A4FF4A02C60
:1027C000583A634505DDD4E929035365C2E913107E
:1027D0002FE00312D4F8A470D5F818015B43381A1F
:1027E00001D4864601E0C0F1000EE64505DDD4F8CF
:1027F000A800D164C2E914701BE0001200FB003392
:10280000D4F8A800D5F81C11401A01D4014600E004
:10281000414261450DDC001200FB0030B0F5403F45
:10282000B4DBA034C5F8B86094E80B004C3282E801
:102830000B000020B3E70220B1E72DE9F04F9B4CDD
:102840002DED028B93B0D4F8A81090ED000B04EBA3
:10285000C10181ED000BD4F8A810491CC4F8A810E0
:1028600090ED020B04EBC10181ED000BD4F8A81030
:10287000491CC4F8A81090ED040B04EBC10080EDD6
:10288000000BD4F8A800401CC4F8A800152802DBEF
:102890000020C4F8A800182284490CA803F09FF86F
:1028A0001822824904A803F09AF801260DF1300A93
:1028B0000DF1100BA146002406EB460808EB0401BD
:1028C00009EBC1050AEBC40795ED001B97ED000B62
:1028D00053EC112B51EC100B03F048FB03D295ED98
:1028E000000B87ED000B0BEBC40795ED001B97ED7C
:1028F000000B53EC112B51EC100B03F01FFB03D218
:1029000095ED000B87ED000B641C032CD6DB761CC9
:10291000072ED0DB9DED0C1B9DED040B53EC112B12
:1029200051EC100B03F0A8F99DED0E1B9DED060B6D
:1029300041EC180B53EC112B51EC100B03F09CF9EC
:1029400053EC182B03F0FAFA0BD39DED0E1B9DED03
:10295000060B53EC112B51EC100B03F08DF941ECED
:10296000180B9DED101B9DED080B53EC112B51EC3A
:10297000100B03F081F953EC182B03F0DFFA0BD3A3
:102980009DED101B9DED080B53EC112B51EC100B22
:1029900003F072F941EC180B13B0B0EE480AF0EEF8
:1029A000680ABDEC028BBDE8F08F10B504462DED32
:1029B000068B9CB0002155200E91CDE90F1011908F
:1029C0009FED3B8B0AA80FF069FD12A90AA810F031
:1029D00046FA16AA0EA912A810F064FA6A460AA9C5
:1029E00016A810F05FFA0198B2EE059A00F59670FD
:1029F00001900298B0EE490A00F596700290039893
:102A000000F596700390FEF78BFBBDEEC00A0199AE
:102A100010EE100AB0EE490A08440190FEF780FB60
:102A2000BDEEC00A029810EE101AB0EE490A084432
:102A30000290FEF775FBBDEEC00A039910EE100A76
:102A400008440390204601A9FEF77DFC94ED300B6D
:102A50009FED191B51EC100B53EC112B03F086FA70
:102A60005DD21AAA04A92046FEF73FFE60B39DED91
:102A7000080B9FED138B51EC100B53EC182B03F04C
:102A8000FBF841EC100B53EC102B03F0FBF841EC7E
:102A9000190B9DED060B53EC182B16E000000000FF
:102AA000000000000000803768C3012048C20120F8
:102AB0000000000000408F40000000000000344093
:102AC0000000000000C0724029E051EC100B03F040
:102AD000D3F841EC100B53EC102B03F0D3F89DED21
:102AE000040B41EC1A0B53EC182B51EC100B03F0B8
:102AF000C3F841EC100B53EC102B03F0C3F853EC6C
:102B00001A2B03F018F853EC192B03F014F841ECCE
:102B1000100B0CF097F8B0EE408AF0EE608A9FED53
:102B2000FD0B51EC180B53EC102B03F01DF91CB0EE
:102B300041EC100BBDEC068B10BD10B5E821F74839
:102B400002F074FFF648F74920F8BC1F4A0CC28017
:102B5000C181828281834284F048E821E83002F01A
:102B600065FFEF490020C1F8B40010BD2DE9F04326
:102B7000EB4D04462DED108BC3B0006BC5F8A001E2
:102B80002046FFF7DCFD00287ED1D5F8941105F131
:102B9000BC08012911D1B4F98C003D90B4F98E0024
:102BA0003E90B4F990003F903DA9DC48FEF7CBFB86
:102BB00004F18C01404600F0A4FB1FED48DB9FEDC3
:102BC000DABB9FEDDBCB9FEDDCAB9FEDDDEBD34EB6
:102BD000D5F80801E83E002802DD401EC5F80801CE
:102BE00096ED300B53EC1D2B51EC100B03F0BEF99E
:102BF0007DD2CA49E822E839684602F0F0FEC748AB
:102C00003DA9E838FEF79FFBC44940AA20390F468A
:102C1000A1F1C800FEF769FD00287BD0BF48394606
:102C2000E838FFF791F9B0EE408AF0EE608A95ED52
:102C3000400B51EC180B53EC102B03F01DF896EDE4
:102C4000300B41EC190B53EC1B2B51EC100B03F028
:102C500013F841EC100B51EC190B53EC102B03F053
:102C600083F841EC100B0BF0EDFF96ED30FBB0EE6E
:102C7000409AF0EE609A53EC1B2B51EC1F0B02F0C4
:102C8000FBFF53EC1F2B00E0E9E002F0FBFF41ECFF
:102C90001F0B53EC1C2B51EC180B02F0F3FF53EC01
:102CA0001F2B03F061F841EC100B0BF0CBFFD5F8B4
:102CB000E80003F02FF995ED381B53EC112B02F0CF
:102CC000E1FF53EC192B03F039F903D3D5F80801D0
:102CD000002826DD9148E8226946E83802F07FFEA8
:102CE000D5F8E80003F016F995ED381B01E010E087
:102CF00010E053EC112B02F0C5FF53EC192B03F03D
:102D00001DF95CD24FF4FA7001F03CFE0A20C5F8C0
:102D1000080154E08148E8226946E83802F05FFE85
:102D20004DE0D5F89801012849D1D5F8B400401CF0
:102D3000C5F8B400002010F049FD96ED320B53ECBD
:102D40001A2B51EC100B02F09DFF03F0C4F83A90DF
:102D500096ED340B53EC1A2B51EC100B02F092FF52
:102D600003F0B9F83B9096ED360B53EC1A2B51EC6F
:102D7000100B02F087FF03F0AEF83C9003213AA855
:102D800010F088FC96ED300B53EC1E2B51EC100B21
:102D900003F0ECF811D29FED6C0A6049E839F0EECF
:102DA000400A0846FEF7FFF95C483946E838FFF765
:102DB000CBF8B0EE408AF0EE608A85ED408B208E35
:102DC000564FC0050CD5B4F87400C00508D507F1FE
:102DD000E800FFF7EAFDB0EE408AF0EE608A01E01D
:102DE0009FED4C8B97ED300B1FEDCD1B51EC100B75
:102DF00053EC112B03F0A2F831D3484940AAC83153
:102E000089464648FEF771FC00287CD0D4F8AC0017
:102E100003F02FF841EC100B53EC102B9FED4B0BF4
:102E200051EC100B02F0A0FF41EC1F0B4846FFF7DE
:102E300004FDB0EE409AF0EE609A53EC1F2B51EC7B
:102E4000190B03F093F80BD29FED420B51EC180BCA
:102E500053EC102B03F072F802D2FFF76EFEDBE1A9
:102E600053EC1F2B51EC190B03F068F851D251ECC5
:102E7000180B9FED3A9B53EC192B03F05FF8F5D23A
:102E800097ED300B9FED371B51EC100B53EC112BD2
:102E900003F06CF8EAD296ED300B53EC1D2B51EC9D
:102EA000100B03F04BF87CD149461C48FFF74CF857
:102EB000B0EE408AF0EE608A85ED408B97ED309B56
:102EC00053EC1B2B51EC190B02F0D6FE53EC192BD3
:102ED00002F0D8FE41EC190B53EC1C2B51EC180BF3
:102EE00002F0D0FE53EC192B02F03EFF41EC100B28
:102EF0000BF0A8FEB0EE408AF0EE608AD5F8E8004C
:102F000003F008F800E088E195ED381B53EC112B35
:102F10002CE078E1000000000000084078C00120AB
:102F200048C201200080FFFF000000000000F03FC9
:102F30000000000000000040000000000000F04021
:102F40000000000000409F406666E63E9A9999990D
:102F50009999A941000000000000F83F000000001E
:102F6000000010400000000000003E4002F08AFE19
:102F700053EC182B02F0E2FFFFF46FAF9DED400B16
:102F800049464046FDF7C4FF02283FF466AF0028DB
:102F90007ED1D5F898010128FAD1002010F016FC56
:102FA00000E02FE097ED320B53EC1A2B51EC100B95
:102FB00002F068FE02F08FFF3A9097ED340B53EC6D
:102FC0001A2B51EC100B02F05DFE02F084FF3B90D7
:102FD00097ED360B53EC1A2B51EC100B02F052FE0E
:102FE00002F079FF3C9003213AA810F053FB012036
:102FF00010F080FB1920009001900290684610F0BC
:103000006FFBF6E0D5F8B40002F033FF97ED301B0C
:1030100053EC112B02F0A8FE9FEDE71B53EC112B94
:1030200002F0A4FFA8D34946E548FEF78DFF97EDCF
:1030300030DBB0EE408AF0EE608A53EC1B2B51EC93
:103040001D0B02F019FE53EC1D2B02F01BFE41EC90
:103050001B0B53EC1C2B51EC180B02F013FE53EC22
:103060001B2B02F081FE41EC100B0BF0EBFDB0EEE0
:1030700040BAF0EE60BAD5F8E80002F04BFF95EDEB
:10308000381B53EC112B02F0FDFD53EC1B2B00E021
:1030900087E002F053FFC5D39DED400B4946404603
:1030A000FDF736FF00287CD196ED361B97ED360BE9
:1030B00053EC112B51EC100B02F0DEFD41EC100B28
:1030C00053EC102B02F0DEFD96ED341B97ED340B24
:1030D00041EC1B0B53EC112B51EC100B02F0CCFD0F
:1030E00041EC100B53EC102B02F0CCFD96ED321B93
:1030F00097ED320B41EC1C0B53EC112B51EC100BE8
:1031000002F0BAFD41EC100B53EC102B02F0BAFDAB
:1031100053EC1C2B02F00FFD53EC1B2B02F00BFDAC
:1031200041EC100B0BF08EFDB0EE40BAF0EE60BA41
:10313000D4F8AC0002F09DFE53EC1B2B02F0A2FD74
:103140009FEDA01B53EC112B02F09CFD41EC1B0BDF
:1031500053EC192B02F00AFF1AD39FED9C0B51EC94
:103160001B0B53EC102B02F001FFBFF476AED5F829
:10317000B40002F07EFE97ED301B53EC112B02F0F1
:10318000F3FD9FED941B53EC112B02F0D7FEECD214
:10319000D5F8980101287FF460AE002010F016FBEE
:1031A00000E039E085ED408B97ED320B53EC1A2BA4
:1031B00051EC100B02F066FD02F08DFE3A9097ED97
:1031C000340B53EC1A2B51EC100B02F05BFD02F0A8
:1031D00082FE3B9097ED360B53EC1A2B51EC100B03
:1031E00002F050FD02F077FE3C9003213AA810F067
:1031F00051FAF7EE000A9FED790A7149A1F1E80052
:10320000FDF7D1FF29E697ED300B53EC1E2B51EC67
:10321000100B02F0ABFEF5D3002043B0BDEC108BD9
:10322000BDE8F08370B56E4C0546D4F80C0110B9BA
:10323000284600F091F8D5F8B01044F6206081429D
:103240000ADAD4F8102111448142C4F810114FF069
:10325000000005DBC4F810012846BDE8704085E495
:1032600070BD04224FF4C871AFF2470010F058B897
:10327000AFF24F0010F020BC514810B5E821E838FB
:1032800002F0D4FBFFF759FC4FF4D471544802F01C
:10329000CDFB534CB7EE000A04F5907084ED3A0A6A
:1032A000FDF78BFA0A20C4F87001B2EE000A84ED33
:1032B000570A1E209FED4B0AC4F87C0184ED620A78
:1032C0009FED490A84ED610A9FED480A002084EDD4
:1032D000630A10BD10B5FFF7CFFF002805D1AFF28C
:1032E0007D00BDE8104010F0DBB810BD10B5AFF2A6
:1032F000CB0010F0E1FBAFF29500BDE8104010F0FC
:103300000DBC30B50022C2EBC20331F9124030F9D6
:103310001350AC420ADD02EB42040D8820F8245021
:1033200000EB84044D8865808D88A58000EB430305
:1033300031F91240B3F906309C4209DA02EB42033C
:1033400000EB83030C88DC804C881C818C885C81BA
:10335000521C032AD7DB30BD70B5214DD0F8AC200C
:103360000446EAB1D3170020192102F0E6FA45F825
:10337000AC0F54F8AC2F0020D317052102F0DDFA72
:10338000686022680020D317962102F0D6FA02F076
:1033900070FDC5E90D01AC3D0120C5F80C0170BD03
:1033A0006FF00040C5F8AC009FED110BC5F8B00000
:1033B00085ED380BF0E700000AD7A3703D0AE73F20
:1033C00078C00120000000000000103E0000000056
:1033D00000000440333333333333C33F0000000075
:1033E00048C20120CDCCCC3E3333333F9A99193FAC
:1033F0000000C0FFFFFFDF4110B5FF49C4074FF0D9
:1034000040434FF0804205D08B66CB66C1E91C3249
:103410008A67CA67840709D5C1F80031C1F8043149
:10342000C1E94232C1F81021C1F81421400709D581
:10343000C1F89831C1F89C31C1E96832C1F8A821BE
:10344000C1F8AC2110BD2DE9F14F002082B08246B9
:1034500081460298806F00287ED000220020401C08
:103460000428FCDB029800EBC203D3E90010A1FBA7
:103470000167D3E9065400FB017701FB0077AB46F7
:10348000AD1BCDE900670326A5FB06C8A64664EB85
:10349000070404FB0684002705FB0745DDE90067F8
:1034A0001CEB06047D41A4FB016705FB017504FBD1
:1034B0000055D3E90C47341B65EB0705CDE9004502
:1034C0005D46A5FB05670324A6FB04580EFB0B779E
:1034D0000BFB0E7707FB04844FF0000C06FB0C443B
:1034E000D3E91263761B63EB04034C18A4FB017C45
:1034F00040EB000505FB01C504FB0055A7FB014C93
:1035000005FB01C507FB0055A4FB017C05FB01C5BC
:1035100004FB0054F6196341DDE90045AD0045EABE
:103520009475A400A4FB017C05FB01C104FB0014FD
:10353000F01B73EB040103D50023404263EB010150
:10354000BAEB000479EB010301DA82468946521C8A
:10355000032A83DB504600E016E0494602F073FC84
:1035600000EE900AA54890ED0E1A80EE810A10EE4A
:10357000100A02F08FFCA04AD2F80C2203B092008D
:10358000BDE8F04F02F019BA002003B00146BDE8D3
:10359000F08F2DE9F14F0020009A0146926FE2B3BF
:1035A00000240022521C042AFCDB009A02EBC40512
:1035B000AA46D5E90029A2FB023CD5E906769E463B
:1035C000FB1A0325A3FB057809FB02CC02FB09CB00
:1035D00066EB0B0606FB05854FF0000C03FB0C5653
:1035E00017EB0E03A3FB027C46EB0B0606FB02C2A5
:1035F00003FB0923DAE90C25BA1AAB4103D50025F0
:10360000524265EB0303851A71EB030501DA10469C
:103610001946641C032CC4DB00E015E002F013FC27
:1036200000EE900A754890ED0E1A80EE810A10EEB9
:10363000100A02F02FFC704AD2F80C22BDE8F84FB5
:1036400002EB420202F0B9B900200146BDE8F88F52
:103650002DE9FE43684D80460024D5F810626F4680
:1036600005EBC4013246D1E9020102F097F905EBFE
:103670008401B1F884100904401847F8240004F1CB
:103680000104032CECDB5C489821083002F0CEF9F1
:103690000120FFF7B1FE95F8E8010199042807D150
:1036A000D5F81802B0F5201F02DD052085F8E801E5
:1036B000524C0098636AC11A01D40E4600E01E1AEB
:1036C0000198A26A801A01D4074601E0019FD71B26
:1036D000BE4206DD002901D4084606E00098181A0B
:1036E00003E0002801D50198101A029AE16A521AE3
:1036F00001D4134601E0029BCB1A834205DB002A6A
:1037000001D4104601E00298081AD8F824100FF0EE
:103710005EFBD5F81812814206DD0321684610F0E1
:10372000EBF8022010F050F9009860620198A06256
:103730000298E062BDE8FE83304AC2E902017047A8
:103740002E4AC2E9060170472C4AC2E904017047BB
:10375000294AD2F8E0310360D2E97402C1E90002DB
:103760007047254AD2F8E0310360D2E97602C1E918
:10377000000270472DE9FE4781460020EA468A6F25
:1037800022B901EB800339F91020DA6701EB8002DE
:1037900039F91030D46F1D1B4AF82050136E9D422A
:1037A00000DD1566D36E9D4200DAD5660123002444
:1037B00022464FEAE578A3FB056704FB057403FB8B
:1037C0000844334602EB420601EBC60606EBC00C8A
:1037D000DCE90076FF186641CCE90076521C042A29
:1037E000E9DB401C0328CADB886F401C8867012086
:1037F000C1F89000BDE8FE87F0C3012050C601204B
:1038000030B5002302EB830550F823405B1CEC66C7
:10381000032BF7DBC2F88810916F79B1002102EB1E
:10382000810450F82130E56F5B1B00D55B42256EAB
:103830009D4200DA2366491C0329F0DB906F401C8F
:1038400090670120C2F8900030BD10B500210B46F2
:1038500000EB8102491CD46ED46713660329F7DBA1
:10386000D0F8881040F8783FC0E9051310BDD0E9C2
:103870002210081A70470146D1E91802824200DB83
:103880001046896E814200DB084670472DE9F047FB
:103890008046501E012686408946C2F120074046D8
:1038A00002F08BF804460D46404649463A4602F07F
:1038B00075F83A4602F081F8B04203DD641C45F128
:1038C000000505E07142884202DA641E45F1FF35C9
:1038D00020462946BDE8F087F74900200862486283
:1038E0008862C862086448648864C864086348637E
:1038F0008863C863086548658865C865704730B5E2
:10390000EE4AD2F8483223B1D2E990542D1A8C41B4
:1039100001DAC2E990015B1CC2F8483230BD30B513
:10392000E64AD2F8583223B1D2E994542D1A8C4188
:1039300001DAC2E994015B1CC2F8583230BD30B5DF
:10394000DE4AD2F828322BB1D2E98845041B71EB4C
:10395000050401DAC2E988015B1CC2F8283230BDD7
:1039600030B5D64AD2F838322BB1D2E98C45041B97
:1039700071EB050401DAC2E98C015B1CC2F8383234
:1039800030BD2DE9F0470246CC480125083080467D
:10399000C36E016E046FC91A436E1B1B8B4200DBA2
:1039A0001946836ED8F87400181A884200DB014665
:1039B000C14F6037F86B884204DA002400F010FA37
:1039C000204687E7108E0124BC4EC0054FF0000151
:1039D0000ED5D6F880303068834209DBB2F8742007
:1039E000D20506D5D6F8B021824201DB052400E0DD
:1039F0000C4674B3600719D5AF48C8388146FFF745
:103A000022FD000D40EA01300915C6E97601D7E92B
:103A100004321B1A8A4102DA0025FFF7A1FF982120
:103A2000484602F003F80420FFF7E6FCE0070ED05A
:103A30004046FFF708FDC6E97C01D7E90634024697
:103A4000181A8C4103DA00251046FFF778FF284644
:103A500040E7FFE702203DE71EB5044690F830003E
:103A6000C0F38110032804D19449201D0831FFF7C9
:103A700081FE94F87400C0F38110032805D18E49AB
:103A800004F14800C839FFF775FED4F8B8008B4A36
:103A9000C0F38113A0326946032B0FD0C0F341104D
:103AA00003281AD1002004EB8003D3F8A0309B1325
:103AB00041F82030401C0328F5DB09E0002004EB2E
:103AC0004003B3F98C3041F82030401C0328F6DB6A
:103AD0006846D4F8C010FFF793FE1EBD2DE9F047ED
:103AE00005460020296BCA056AD501F0500140291E
:103AF00000D1012095F8741001F05001402900D147
:103B0000012095F8B8106D4C01F05001402900D00B
:103B100030B100F065F90020C4F8E00184F8E80154
:103B2000654ED4F80812E86A6036814228D0C4F89D
:103B300008020A28306B0CDA40002060716B00EE3E
:103B4000100A491CC4F80C12B8EEC00A0BF0B7F802
:103B500005E02060706BC4F80C0296ED0E0A84ED4F
:103B6000850AD4F80C02C0F11000C4F810024FF41A
:103B70008040C4F8180296F8341019208840F06389
:103B80002846FFF769FF94F8E811DFF83091052720
:103B90004FF0020809F1A009072911D2DFE801F06E
:103BA000041127305E7E8500D4F8E001411CC4F882
:103BB000E0110A2804DB00F013F9012084F8E80181
:103BC00086E0D4F89800012810D12846FFF7D9FEE6
:103BD00010B1012803D004E084F8E87101E084F812
:103BE000E8814846FFF731FEFFF776FE70E00320DC
:103BF00084F8E8012846FFF72BFD00F0F1F867E0B4
:103C00002846FFF7BEFEE8B3012861D1B5F8B80039
:103C10004FF00403C00515D54846FFF72CFE0146BA
:103C2000C017C4E97410D6E902C2BCEB010182419D
:103C300002DA84F8E87108E04846FFF718FE316AB6
:103C4000884202D384F8E83124E0F4E97601FFF7F2
:103C500066FED4E90601FFF752FE39E0B5F8B80078
:103C6000C0050BD54846FFF706FE0146C017C4E95C
:103C70007410D6E90232591A824108DB2846FFF750
:103C800080FE00E003E010B1012803D020E084F8BA
:103C9000E8711DE02846FFF7DBFCD6E7062084F834
:103CA000E80101200FF090FE0DE02846FFF769FEC5
:103CB000012805D038B10BE0F0C50120F0C3012088
:103CC00084F8E88104E000F08BF84846FFF7BDFD7A
:103CD0000020FFE510B500214010002802D001F1BE
:103CE0000101F9DC4FF0010001F1010100FA01F0DE
:103CF000434C00EE100AC4E90C01B8EEC00A0AF009
:103D0000DEFF84ED0E0A94F8341019208840E06339
:103D100010BD10B54FF418713A4801F087FE4021EC
:103D2000374801F083FE0720FFF766FB344840F276
:103D3000DC510022C0E906121421C0E902124FF43E
:103D40001671C0E9041230492E4C01620120C4F8FA
:103D5000E4011920FFF7BEFF0020C4F8080210BDDF
:103D600010B54FF41871274801F060FE0720FFF7E7
:103D700043FB244801210022C0F8E41180F8E81137
:103D8000032101200FF012FE07226421AFF2B320BD
:103D9000BDE810400FF0C4BA10B501200FF014FEBA
:103DA000AFF2C720BDE810400FF086BE10B5FFF798
:103DB000B0FF002805D1AFF25700BDE810400FF06A
:103DC0006FBB10BD10B5FFF7E7FFAFF26B00BDE8AA
:103DD00010400FF0A3BE0B49D1E97C01704770473A
:103DE000084810B59821083001F020FE98210748B6
:103DF00001F01CFEBDE810400520FFF7FDBA0000F1
:103E000050C60120F0C301200008AF2F28C50120B3
:103E1000F0B516462DED028B85B01F460C460546C3
:103E20003C22FE49A1F10C0001F0D9FDFB495022D2
:103E30004C31A1F1100001F0D2FDF84996E80D00D7
:103E40000C3901F13C0C8CE80D005CCC01F19800C0
:103E500080E85C009FEDF28AD1F82401401CC1F893
:103E60002401062802DD0620C1F82401C0F106065F
:103E70000C46A0351AE004EB06116A463846483174
:103E80000FF010F806EB460004EB80016A46284666
:103E90000EF02AF9F0EEC00AB0EEC81AF4EEC10A2C
:103EA000F1EE10FA01D2B0EE408A761C062EE2DB6B
:103EB00005B0B0EE480ABDEC028BF0BD70B51446FB
:103EC0002DED048B0E46B0EE408A00259FEDD59A6D
:103ED000416BF0EE498A002904DBD0F8BC000328CE
:103EE00000D10125CD492422B431081F01F077FD0E
:103EF000CA480C38002380ED388A00EB83015B1C34
:103F000091ED2F0A0A2B70EE288AF6DBB2EE040A36
:103F1000C822C8EE800AC0ED390A9FEDC31A322EBE
:103F20001DDB9FEDC20AC0F81C21B6F57A7FC8EEF2
:103F3000001A00EE104AB8EEC00A61EE801A81EE57
:103F4000810A2FDB9FEDBA0AC8EE001A00EE104A74
:103F5000B8EEC00A61EE801A81EE810A22E041F2D9
:103F6000883194FBF1F14942D0F81C3101EB810119
:103F7000C918C0F81C1102D50021C0F81C119FED12
:103F8000AD0AC8EE001A00EE104AB8EEC00A61EEA3
:103F9000801A81EE810A29B9D0F82811012901D1AE
:103FA000B0EE490AD0F8201109B1B0EE480AA24992
:103FB0008C4201D1B0EE480AB5EEC00AF1EE10FA1B
:103FC00001D0C0ED3A0A90ED3A1A9C4B71EE600AAE
:103FD000F0EEE00A10EE901A994227DDD0ED2E0A9D
:103FE000F5EEC00AF1EE10FA20D1002D1ED0C0F877
:103FF0001C21204601F03DFF41EC190B18EE100A80
:1040000001F088FF9FED8E1B53EC112B01F0ACFEED
:1040100053EC192B01F036FE9FED8B1B53EC112B4B
:1040200001F0A2FE01F0BAFF00EE100ABDEC048B15
:1040300070BD2DE9F04F04462DED048BA9B09FED26
:10404000799A4FF0000A754ECDF810A00C3ECDF8CD
:1040500014A0CDF818A0D6F82011022003297DD095
:1040600000209FED7B8A20AD06EB800191ED2A0AAE
:1040700005EB8001401CB8EEC00A042820EE080AB7
:1040800081ED000AF0DB0FA80EF008FA24A80EF06C
:104090006FFA624B24AA9C330FA920462793FFF79F
:1040A000B7FEF0EE408A04F118000EF0C9FA81095B
:1040B0006148D6F83021824200DB0246B0EE680A41
:1040C0002046FFF7FBFED6ED3B0AB3460BA820EED9
:1040D000200A86ED2E0A0EF0E1F913A90BA80FF0C5
:1040E000B2F84E480FAAF0300BA906460EF0DAFEE1
:1040F00031460BA80EF0B3FE00210DF13C080DF186
:104100004C090DF1100E00221346104601EB410C34
:104110000CEB000759F8276008EB8007401C7F680C
:104120000328C6FB0723F3DB900F40EA83004EF819
:104130002100491C0329E6DBDBF820015E4600284C
:104140006AD05046CDF818A0404200EE100AB8EEF2
:10415000C00A20EE080A0AF017FA00E0A2E08DED8E
:10416000000A8DED019A8DED029A0698404200EE0C
:10417000100AB8EEC00A20EE080A0AF09BFC8DED8A
:10418000030A9DED060ADFED330AD6F83001B8EEDA
:10419000C00A41F2883190FBF1F080EE201A00EE67
:1041A000100AF8EEC01A81EE210AB0EE001AC0EE35
:1041B000011ABDEEE10A10EE101A490000EE101AC5
:1041C0000691B8EEC00A60EE200A00EE100AB8EEC2
:1041D000C00A20EE800ABDEEC00A8DED060AB8EED8
:1041E000C00A20EE080A0AF0CFF98DED070A8DED1E
:1041F000089A8DED099A9DED060AB8EEC00A20EEE8
:10420000080A0AF057FC8DED0A0A1CAA694620A884
:104210000EF0A1FE6A461FE04BE000009CC60120A4
:10422000002474490000000000409C450000484301
:10423000000048420000C84340420F000E2DB23D2E
:104240000000000000007940000000000088B3403A
:1042500000008030E102374707A91CA80EF07BFE62
:104260006F46DFED958AD4F8BC00002813DD0020EE
:1042700007EB800191ED000A05EB800181ED000A5A
:1042800020EE280A06EB8001401C0428BDEEC00A7F
:1042900081ED2A0AECDBD4F8BC00F6EE009A032884
:1042A0000CD108E0C6F8200129B0BDEC048BBDE8B4
:1042B000F08F069848E700F03DFEE0B396ED2A0A3D
:1042C000B8EEC00A20EE080A8DED1C0A96ED2B0A06
:1042D000B8EEC00A20EE080A8DED1D0A96ED2C0AF4
:1042E000B8EEC00A20EE080A8DED1E0A96ED2D0AE2
:1042F000B8EEC00A20EE080A8DED1F0AD6F820019C
:104300000028D1D096ED2E0A20EE290A0AF03CF9B9
:1043100020EE280ABDEEC00A86ED2A0AC6F8ACA037
:10432000C6F8B0A096ED2E0A20EE290A0AF0C2FBCC
:1043300020EE280A00E004E0BDEEC00A86ED2D0A5A
:104340002BE096ED2E0A20EE290A0AF01DF98DEDDC
:10435000070A8DED089A8DED099A96ED2E0A20EE4A
:10436000290A0AF0A7FB8DED0A0A6A4607A920A8C8
:104370000EF0F1FD68460EF0ABFE002007EB800169
:1043800091ED000A06EB8001401C20EE280A04286B
:10439000BDEEC00A81ED2A0AF0DBD4F8C0102798E0
:1043A0000FF0AEF9D6F820010028AAD0401E79E718
:1043B00070B590F8B810414ACC064FF000034FF0AA
:1043C000030101D4C2E94813B0F82041E40509D43F
:1043D000048EE40503D5B0F87440E40502D4C2E9C4
:1043E00048131AE0D2F8341139B1D0E93013C91AA0
:1043F0004FF47A73B1FBF3F105E0D0F8B01044F656
:104400002064A14202DBC2F830110AE0D2F82C513C
:104410002944C2F82C11A14201DA002070BDC2E982
:104420004B31FFF706FEF8E710B54FF49C712348B7
:1044300001F0FCFA214C4FF080400021C4F8FC0050
:1044400044F8A80F1D48A8300FF05AF94FF47A70BD
:10445000B7EE000A606784ED110A10BD174880EDC1
:104460003B0A002070471549C1F828010020704719
:104470001249C1F834010020704704224FF416712C
:10448000AFF2D3000EF04CBFAFF2DB000FF014BB65
:1044900010B5FFF7C9FF09490020C1F82801C1F88C
:1044A0003401AFF22900BDE810400EF0F9BFAFF2C1
:1044B00035000FF033BB00000000804E90C6012095
:1044C0001FB501461022684601F089FAF7489DE8B9
:1044D0000E0080E80E00F6499DF80C0081F8B0014E
:1044E000002004B010BD1FB5F0490EC98DE80E00C4
:1044F000EF49102291F8B0118DF80C10694601F0C7
:104500006EFA0020EDE72DE9F04F91B0002518215B
:10451000684601F08BFA0024182106A801F086FAFB
:10452000E348A046C14690F8C01101297ED1D0F8D9
:10453000B8B1D0F8B4A10022C2EBC20000EB400138
:10454000DB4800EB810E9EF850000F90002864D0ED
:1045500000215FE0DDE900076D1C5EF821300E935D
:10456000181847EBE376CDE900060EEB8100EDB2BB
:1045700043690D93DDE9027C4FEAE376DB1946EBF4
:104580000C06CDE90236836ADDE9047CDE170C9364
:10459000DB1946EB0C06CDE90436C06B0E9BDDE95A
:1045A000067C83FB0063360C46EA0346F6194CEBA7
:1045B0002343CDE906630D9BDDE9087C83FB0063A3
:1045C0004FEA164646EA0346F6194CEB2343CDE97B
:1045D00008630C9BDDE90A7C83FB00634FEA164607
:1045E00046EA0346F6194CEB2343CDE90A6380FB08
:1045F00000634FEA164646EA034616EB080849EB05
:1046000023490444584501DA834602E0504500DD61
:104610008246491C0F9888429CDC521C052A8BDB81
:10462000A348AAEB0B01D0F8BC0100E056E08142A0
:1046300054DBA5FB0823E0170026109006FB08308A
:1046400005FB0900CDE90C2084FB0420110C41EA94
:1046500000410014CDE90E0106A800EBC601D1E926
:104660000003A0FB05B203FB0522002100FB012C87
:10467000684600EBC601D1E90001A0FB043701FB4D
:104680000471109A00FB0210190C41EA00490CAAAF
:104690004FEA204A92E889000F9983EA070880EAE6
:1046A000010252EA080212D0421A63EB0703BBEB85
:1046B00009006CEB0A0C4FEA0C4141EA104100047E
:1046C00001F03BF97A4901EB8601C1F8A401761C9F
:1046D000032EC1DB7648012180F8B01111B0002013
:1046E000BDE8F08FF8B5724D0E460446D5E96D0170
:1046F000091A052291FBF2F1301A90FBF1F0C0B2D9
:104700008DF80000042801D92020F8BDC0EBC000BE
:1047100000EB400005EB800191F85000052816D011
:10472000421C81F850209DF80010C1EBC10101EB43
:10473000410105EB810202EB8001CE63236842F860
:10474000203060684861A06888620020F8BD01F1EF
:104750004003181F1022194601F041F99DF800008E
:104760001022C0EBC00000EB400005EB8000011DF3
:1047700001F035F99DF800001022C0EBC00000EBFD
:10478000400005EB800000F11801143001F027F91A
:104790009DF800001022C0EBC00000EB400005EBCC
:1047A000800000F12C01283001F019F90420BAE74B
:1047B00030B585B0044603A968460DF017FF04A87C
:1047C0000DF0DCFF02282BD0D4F8E4000399401A46
:1047D000374991F8B02112B308B3D1F8A421009C55
:1047E00080FB0232150445EA134222440092D1F8BC
:1047F000A821019C80FB0232150445EA13422244A1
:104800000192D1F8AC11029A80FB0110030443EA33
:10481000114010440290032168460FF06DF80CE03F
:10482000606B032809D10DF0F3FE30B1684603999F
:10483000FFF758FF08B9FFF766FE05B0002030BD4E
:1048400010B54FF4E2711A4801F0F0F81848194910
:10485000C0F8B4114FF4AA01C0F8B8114FF4A02168
:10486000C0F8BC11012180F8C011002010BD104912
:10487000C1F8B801002070470D49C1F8B40100200B
:1048800070470B49C1F8BC010020704758B1084976
:10489000D1F8A4210260D1F8A8214260D1F8AC116E
:1048A0008160002070470520704700006CC901201E
:1048B000C8C701200000D8FF2420F5E720B12D490A
:1048C00081F8C0010020EFE72420EDE7294B93F8A1
:1048D000B1010028E8D0D3E96D10401A052190FB02
:1048E000F1F00020C0EBC00101EB410103EB8101BD
:1048F00091F8502022B1002100E0491C8A42FCDCE2
:10490000401C0528EEDB0020CEE7082296211A483D
:104910000EF006BD18480FF0CFB810B5FFF790FFA6
:104920004FF49A731022154915480EF071FD20B905
:10493000AFF229000EF0B4FD08B1012010BD0D4901
:10494000012081F8B101002010BD10B5094C94F888
:10495000B101002808D008480FF0AEF8AFF25500BA
:104960000FF0DCF808B1012010BD002084F8B1017F
:1049700010BD0000C8C70120B1470020E744002057
:10498000C1440020002803DDFE490122C1E92002C4
:104990000020704710B5B821FA4801F047F89FEDA4
:1049A000FA0AF84880ED030A9FEDF80A80ED020A42
:1049B0009FEDF70A4FF0804180ED000AB3EE0E0A3A
:1049C00080ED010A41664FF4FA619FEDF20AC1677A
:1049D00080ED270A002010BD70B5EA4C002594ED4B
:1049E000001AB4EEC01AF1EE10FA17D394ED011AC2
:1049F000B4EEC01AF1EE10FA10DC2069012817D1CC
:104A000094ED030AB4EEE00AF1EE10FA06D394ED49
:104A1000020AB4EEE00AF1EE10FA09DD606F20B987
:104A2000D848A16D18300EF06BFE0120C4E91D05B9
:104A3000D4E91E01884204DB606F012800D1E565DE
:104A4000656770BD10B504462DED028BB0EE408A4F
:104A50000DF030FDCB49002220B918EE100ACE4BE4
:104A6000984202DD0A614A6102E00869002808D123
:104A7000486920444861B0F5FA7F02DD0120C1E9B0
:104A80000402BDEC028B10BDF0B58DB00D4614468E
:104A9000064669460EF0D7FB09AA314628460EF0B5
:104AA00001FA294630460EF0DAF90021EC460DF104
:104AB000240E00231A46184601EB41073D180EEB61
:104AC00080065CF825507668401CC5FB063203283A
:104AD000F4DB980F40EA820044F82100491C0329C6
:104AE000E7DB0DB0F0BDA7490020C1F88C0070478E
:104AF00010B590ED000AD0ED010AB8EEC00AB8EE8C
:104B0000E01AF8EEE00A20EE000A01EE200AD0EDED
:104B1000020AB8EEE01AF8EEE00A01EE200A0AF006
:104B2000CEF8DFED9E0A20EE200A10BD0022954946
:104B3000012330B1012810D0C1F8983041F88C2FF2
:104B400031E081ED280A81ED290A9FED950A81ED7A
:104B50002A0AE1E924328A607047D1ED280A91EDF2
:104B6000271A70EE600AF0EEE00AF4EEC10AF1EEE8
:104B700010FA16D2D1F89400401CC1F89400D1ED7F
:104B8000290A312830EE800A81ED290AE4DD02206D
:104B9000DFED840AC1F8900080EE201A81ED2A1A18
:104BA000704741F8902F4A6070472DE9F0479846CA
:104BB0002DED088B8AB017468A4604469FED788A09
:104BC0000025704E039504950595D6F888000028B9
:104BD0007DD00DF02DFD10B103A80DF0F9FCD6F835
:104BE00080004FF00109002817DDC6F884900DF011
:104BF0001FFD48B103A80DF023FD8009B0F5C87F63
:104C000002D2D6F8800004E0D6F88000001BC6F877
:104C10008000002801DCC6F884500EF009F8002856
:104C200055D000209FED5D9A57F8201000EE101A25
:104C300058F82010401CB8EEC00A032860EE090A9C
:104C400000EE101AB8EEC00A20EE800A00EE098AC3
:104C5000EADB3846FFF74CFFF0EE408A4FF07E5714
:104C600088EE280AF7EE00AA10EE100AB84201DD1D
:104C7000B0EE6A0A10EE100ADFF82C81BFEE00BA1F
:104C8000404501D9B0EE4B0A09F064FAD6F88C0021
:104C9000B0EE40AA98B196ED000AB4EEE80AF1EE43
:104CA00010FA0CDD96ED010AB4EEE80AF1EE10FA06
:104CB00005D2B0EE4A0AD6F89000FFF737FF6846F3
:104CC0000DF046FD2F490C22AC31684600E0E2E0D1
:104CD00000F0B7FE18B9D6F8980001286BD1294822
:104CE0009DE80E00AC3080E80E00009818B90198DD
:104CF00008B90298F0B36846FFF7FAFEB0EE408AB2
:104D0000B5EEC08AF1EE10FA55D0F2EE049A38EE04
:104D1000690A20EE000A09F0D2FF86ED010A38EE9A
:104D2000290A20EE000A09F0CAFF86ED000A9DED6F
:104D3000020AB8EEC00A60EE090AB0EE480A80EE38
:104D4000808A18EE100AB84201DDB0EE6A8A18EEC9
:104D5000100A404501D9B0EE4B8AB0EE480A09F07E
:104D6000F9F9D6ED270A30EE600A86ED020AB0EEB8
:104D7000480A00E024E009F0EDF9D6ED270A30EE0C
:104D8000200A14E08CC901200000B4420000B4C223
:104D9000000070427B142E3E00401C46000080370D
:104DA0000000000000004842000080BF03E086EDE4
:104DB000030AC6F88C50DFF88481F16D21B32FE02F
:104DC0001FED0D0A86ED000AB3EE0E0A86ED010A0C
:104DD000D6F89800012808D01FED140A86ED020AC3
:104DE0001FED170A86ED030AE5E796ED2A0A96ED10
:104DF000271A70EE410A30EE010AC6ED020A86ED6E
:104E0000030AC6F89850D6E70027C6F85C9006EB70
:104E10000710414618300DF083FB7F1C042FF6DB92
:104E2000464906AA0C310F465046FFF72DFE39467B
:104E300050460EF014F803A80DF002FC00EE100A24
:104E4000DFED3F0A2046B8EE400A20EE200AFFF7C9
:104E5000F9FDF0EE4A0AB0EE680AFFF7BDFDD6E9AB
:104E60001E01884201DA2044B067706F90B9306E3D
:104E700020443066B0F57A7F0CDD3049302230397D
:104E8000A1F11000356600F0AAFD2C48414610380B
:104E90000DF046FB706F0AB0BDEC088BBDE8F087E3
:104EA00070B588B0044604A80DF062FBD4E9300167
:104EB000451A68460DF0F2FA064604AB04F1A0026A
:104EC00069462846FFF771FE0EF02CFC08B030460C
:104ED00070BD04224FF49671AFF23B000EF020BA81
:104EE000AFF243000EF0E8BD10B5FFF753FD002808
:104EF0000DD1124800215838C0F88C100121C0F89B
:104F00008810AFF23100BDE810400EF0C9BA10BDF4
:104F100010B5AFF273000EF0CFFDAFF27B00BDE82D
:104F200010400EF0C9BD054901205839C1F88C0068
:104F30000020704701485838406F7047E4C901208D
:104F40000000803CF0B51D462DED028B99B090ED30
:104F5000000AD0ED010A1746B8EEC00AB8EEE01A12
:104F6000F8EEE00A0E4620EE000A044601EE200AA2
:104F7000D0ED020AB8EEE01AF8EEE00A01EE200ADF
:104F800009F09DFEF0EEC00A10EE900AB0F18D4FD0
:104F90007EDDD6ED000AB8EEE01ADFEDFE0A21EE66
:104FA000201A8DED041A96ED011AB8EEC11A21EE01
:104FB000201A8DED051A96ED021AB8EEC11A21EEEF
:104FC000201A8DED061A96ED031AB8EEC11A61EE9D
:104FD000200ACDED070A9FEDF08A10AA8DED0C8A0C
:104FE000D4ED000A0CA904A8F8EEE00A80EE801ABD
:104FF0008DED0D1AD4ED010AF8EEE00A80EE801A6C
:105000008DED0E1AD4ED020AF8EEE00A80EE801A59
:105010008DED0F1A0DF09FFF14A904A80DF02BFFC2
:105020006A4614A910A80DF096FF9DED021ADDED59
:10503000010ADA4921EE010A00EEA00A10EE100A78
:10504000884202DA9FEDD60A11E010EE100AD54927
:10505000884202DA9FEDD40A09E010EE100AD34923
:10506000884202DAB5EE000A01E09FEDD10A01EEB6
:10507000907AB8EEE12ADFEDCF2A8DED088AC2EEF4
:10508000221A21EE800A21EE001A8DED091A00E0A5
:1050900038E020EEC00A6A4604A98DED0A0A8DEDBB
:1050A0000B8A08A80DF057FF6A4604A910460DF0B8
:1050B000B5FE68460DF0B8FFDDED000A9FEDBE0AB3
:1050C00060EE800AFDEEE00AC5ED000ADDED010AA2
:1050D00060EE800AFDEEE00AC5ED010ADDED020A90
:1050E00060EE800AFDEEE00AC5ED020ADDED030A7E
:1050F00020EE800ABDEEC00A85ED030A19B0BDECB2
:10510000028BF0BD96E80F0085E80F00F6E72DE969
:10511000F0410C462DED068B054690ED000AD0EDD2
:10512000010AB8EEC00AB8EEE01AF8EEE00A20EE86
:10513000000A01EE200AD0ED020AB8EEE01AF8EEFD
:10514000E00A01EE200A09F0BAFD10EE100A4FF055
:105150007E5800264FF0804740453FDDD5ED020ADE
:10516000B7EE009AF8EEE00AC0EE808A39EE680ADF
:105170009FED89AAB5EEC00AF1EE10FA01DCB0EE9F
:105180004A0AF6EE009A20EE290A09F098FDB0EEE0
:10519000408A38EE890AB5EEC00AF1EE10FA01DC59
:1051A000B0EE4A0A20EE290A09F089FDF0EE408AA5
:1051B00095ED000AB8EEC00A60EE000A95ED010A0E
:1051C000B8EEC01AB8EEC00A41EE000AB0EE600AAE
:1051D00009F075FD10EE100A404503DCC4E90076C5
:1051E000A66025E0DFED740A28EEA01ABDEEC11A14
:1051F00084ED001A95ED011AF8EEC11A81EE801ABD
:1052000021EE081A61EE200AFDEEE00AC4ED010A63
:10521000D5ED000AF8EEE00A80EE801A21EE080AC9
:10522000DFED660A20EE200ABDEEC00A84ED020A18
:10523000E660BDEC068BBDE8F08170B590ED000A2C
:10524000D0ED010A0546B8EEC00AB8EEE01AF8EE55
:10525000E00A0C4620EE000A01EE200AD0ED020A18
:10526000B8EEE01AF8EEE00A01EE200AD0ED030AEB
:10527000B8EEE01AF8EEE00A01EE200AB5EEC00A38
:10528000F1EE10FA07D84FF08040206000206060F7
:10529000A060C86070BD09F012FDB7EE001AC1EE43
:1052A000000A9FED450A20EE800AD5ED000AF8EECF
:1052B000E00A60EE800AFDEEE00AC4ED000AD5EDDA
:1052C000010AF8EEE00A60EE800AFDEEE00AC4EDA5
:1052D000010AD5ED020AF8EEE00A60EE800AFDEE62
:1052E000E00AC4ED020AD5ED030AF8EEE00A20EE6A
:1052F000800ABDEEC00A84ED030A70BD70B5044695
:1053000090F8300088B040067ED5A069002801DB07
:10531000014600E041424FF480320026284D914280
:105320000BDAE169002900DA4942914205DA216A83
:10533000002900DA4942914267DB002800DA404246
:105340004FF4C80188420BDCE069002800DA4042D3
:10535000884205DC206A002800DA4042884201DDEC
:10536000032000E00220A863696BA06A814242D05A
:10537000686394ED0A0A9FED131AF8EEC00A80EEF6
:10538000810ADFED110A20EE200A10EE100A00F06B
:10539000C1FD1BE0000080300000000017B751394C
:1053A000A69BC43B0AD7233C8FC2753DCDCC4C3E57
:1053B000CDCCCC3E0014CD470000804E000080CE06
:1053C00044CA0120002474490000004E9FEDFA1BDE
:1053D00053EC112B00F056FC9FEDF91B53EC112BF5
:1053E00000F050FC9FEDF81B53EC112B00F0BCFCBF
:1053F00000F071FD28630496296BA0690DF0E7FCAD
:105400000590296BE06901E022E023E00DF0DFFC6C
:105410000690296B206A0DF0DAFC07906A4604A911
:10542000EB480DF03FFD0098E94A8001009001989B
:1054300069468001019002988001029003988001E2
:10544000039010460DF0D8FCE1490846FFF7F5FE41
:1054500008B070BDAE63FBE770B504462DED048B5C
:105460008EB0D0F82001410676D5D94DD4F8101170
:10547000D84B2A68891AD4F82C215A438A4201DA77
:10548000032100E00221A963800504F5887602D596
:10549000CF493046B5E0002107A80DF0A7F8CC4968
:1054A0000C223C3107A800F0CCFA20B9D4F828012E
:1054B000A96D88427ED020886B4680B207AA616AB7
:1054C0000CF072FE9DED000ADDED010AB8EEC00A97
:1054D000B8EEE01AF8EEE00A20EE000A01EE200A2B
:1054E000DDED020AB8EEE01AF8EEE00A01EE200A5D
:1054F00009F0E5FBB0EE408A9FEDB70A68EE000ABE
:105500009FEDB61A80EE810ADFEDB50A20EE200A83
:10551000D4ED4A0AF8EEE00A60EE800A1FED571A51
:1055200080EE810AF6EE000A20EE209AB0EE490ADB
:1055300009F02AF8F0EE408AB0EE490A09F0BAFA0A
:1055400018EE100A4FF08041884206DA0020C5E9C3
:1055500012102865686532E055E05FED690A68EE73
:10556000A00AFDEEE00AC5ED120A5FED6C0A20EE1E
:10557000200ADDED000AF8EEE00A60EE200A80EE77
:10558000881AFDEEC10AC5ED130ADDED010AF8EE39
:10559000E00A60EE200A80EE881AFDEEC10AC5ED31
:1055A000140ADDED020AF8EEE00A20EE200AC0EE51
:1055B000080A00E00DE0BDEEE00A85ED150A07AB34
:1055C00093E8070005F13C0383E80700D4F82801BD
:1055D000A8657F4903AA483130460DF063FC7C483A
:1055E0000AAA5C3003A904460DF05CFC2146304653
:1055F0000DF035FC03AA0AA975480DF053FC744957
:1056000003A8FFF71AFE0EB0BDEC048B70BD1FB5EA
:10561000044669466E480DF022FC6D4A6946203208
:1056200020460DF03FFC6A491DCC103181E81D0079
:105630001FBD2DE9F0470446654E90F8740006F151
:105640005C0A06F12008012500F05001103692B0E6
:1056500004F5887904F15C07402906D094F820010C
:1056600000F0500040280DD01DE031463846FFF7CD
:105670004EFDB4F82001C0050CD5514648460DF04A
:10568000EEFB07E0514648460DF0E9FBB4F8740024
:10569000C00508D569464E480DF0E1FB4246694613
:1056A00030460DF0FFFBB4F82001C005204602D5BE
:1056B000FFF7D2FE01E0FFF721FE324644494046A3
:1056C0000DF0F0FB94F8740040066FD5208EB4F80E
:1056D00020110843C0056DD50FAA394630460DF09C
:1056E00091FDD4E9172080FB0001C2FB0201626E2C
:1056F000374FC2FB02014FF08042801A71F1020065
:1057000014DB04A80CF0E4FFDDE9042080FB0001B9
:10571000C2FB0201069AC2FB02014FF08042801ACE
:1057200071F1020002DB0420B8630BE0B86B0428BF
:1057300008D041F28832022806D0032804D001287C
:1057400052D009E0002507E0E16E91FBF2F5012D52
:1057500000DA0125032800D0AD002248002445438B
:1057600010980794800229460DF031FB08900F989D
:105770002946404280020DF02AFBCDE909040BAA1C
:10578000314607A80DF08EFB32460BA910460DF0EE
:1057900033FB31460846FFF750FD69460C480DF0D3
:1057A0005EFB4246694630460DF07CFB12B000209D
:1057B000BDE8F08720E00000112D4454FB21094092
:1057C0000000000000007040000000000080664003
:1057D00044CA012071981C00DB0F4940000034438B
:1057E00000008037A69BC400E06E90FBF2F0012819
:1057F00000DA01204500AFE7334619463846E26E2D
:10580000FFF7A0FBC9E770B50446008EC105D4F8C8
:10581000200107D4B4F87410C90503D4C10501D41C
:10582000002070BDC0F30120032807D02046FFF7F9
:1058300000FF2348A16B0EF02DF9F1E704F5887104
:105840001F482EC980E82E00F3E71E480EF034B939
:105850001B4810B56C21103800F0E8F818484FF0DC
:1058600080411038016101600162C163C16500209F
:1058700010BD184810B5082213A1006800F0E1F827
:1058800008B1322010BD1322BDE81040C8210D48D8
:105890000DF046BD10B5FFF7DBFF002805D1AFF2D4
:1058A0002D00BDE810400DF0FBBD10BD10B5054842
:1058B0000EF002F9AFF24500BDE810400EF02EB92F
:1058C00054CA012007580020654D504C20352E3118
:1058D00000000000AC9001202DE9F05F054600209B
:1058E00092469B4688460646814640241BE0284651
:1058F00041464746224600F083FB53465A46C01AAB
:10590000914110D311461846224600F047F82D1A4F
:1059100067EB01084F4622460120002100F03EF8C7
:1059200017EB00094E41201EA4F10104DFDC4846BC
:1059300031462A464346BDE8F09F2DE9F041002458
:10594000061B254671F1000605DA01240027D0EB7D
:10595000070067EB0101161E73F1000605DA002748
:10596000D2EB0702012567EB0303FFF7B5FF86467D
:105970000E4617469C46AC4204D00025D0EB050EDF
:1059800065EB010624B10020D2EB000760EB030CAD
:10599000704631463A466346BDE8F081202A04DB72
:1059A000203A00FA02F1002070479140C2F1200332
:1059B00020FA03F3194390407047202A06DBCB17E7
:1059C000203A41FA02F043EAE07306E041FA02F3BA
:1059D000D040C2F12002914008431946704710B5EB
:1059E000431A934209D28318881803E010F8011D66
:1059F00003F8011D521EF9D210BD40EA01039B07B6
:105A000003D009E008C9121F08C0042AFAD203E033
:105A100011F8013B00F8013B521EF9D210BDD2B281
:105A200001E000F8012B491EFBD270470022F6E787
:105A300010B513460A4604461946FFF7F0FF204604
:105A400010BD30B504460020034600E05B1C9342C5
:105A500003D2E05CCD5C401BF8D030BD034611F8AA
:105A6000012B00F8012B002AF9D118467047F0B439
:105A700080EA0102D40F4200B2EB410F02D202468B
:105A8000084611464A0042D0C30DDDB2C1F3C752E9
:105A9000AD1A202D35DAC1F3160141F4000204B12C
:105AA0005242C5F1200602FA06F12A411044B3EB36
:105AB000D05F23D0C4B1012DA0EBC35009DCF0BCF2
:105AC0004FF0004202EAC352DBB200F5000000F0E2
:105AD000B0BA400000F1807000EBC350A0F18070BC
