:020000040801F1
:1000000078AE012059020108353A0208D9060208E3
:1000100079360208316401083D6A020800000000D8
:100020000000000000000000000000009D01010829
:10003000AD69010800000000F1010108C15B020880
:1000400073020108730201087302010873020108B8
:100050007302010873020108730201081571010897
:100060007302010873020108730201087567010831
:10007000730201087302010885670108956701088A
:10008000A5670108B567010873020108730201083A
:100090007302010873020108730201081F7101084D
:1000A0007302010873020108730201087302010858
:1000B00073020108B55E0208C55E02080D0702085A
:1000C000FD0602082D0702081D070208C1430208A9
:1000D000D1430208730201082D6A02087302010865
:1000E000F970010873020108730201087302010824
:1000F0007302010873020108730201087302010808
:1001000073020108730201087302010873020108F7
:10011000E5630208F563020873020108D55E020870
:1001200073020108C5670108730201087302010820
:1001300073020108730201087302010873020108C7
:1001400073020108730201087302010873020108B7
:1001500073020108730201087302010873020108A7
:100160007302010873020108730201087302010897
:1001700073020108730201086567010800000000AE
:100180007302010873020108DFF80CD006F038F89A
:1001900000480047A152030878AE01202B4B196894
:1001A0000868B0E8F04F80F30988BFF36F8F4FF015
:1001B000000080F3118870470000000006480068C6
:1001C000006880F3088862B661B6BFF34F8FBFF353
:1001D0006F8F00DF00BF00BF08ED00E0DFF80C000C
:1001E000016841F470010160704700BF88ED00E0D4
:1001F000EFF30980BFF36F8F144B1A681EF0100FD6
:1002000008BF20ED108A20E9F04F106008B44FF0CD
:10021000500080F31188BFF34F8FBFF36F8F28F02A
:100220000DF84FF0000080F3118808BC19680868C9
:10023000B0E8F04F1EF0100F08BFB0EC108A80F34A
:100240000988BFF36F8F704700BF00BF740600209E
:10025000EFF30580704700000648804706480047D6
:10026000FEE7FEE7FEE7FEE7FEE7FEE7FEE7FEE766
:10027000FEE7FEE7B95C02088901010893081BD07C
:1002800090ED000AD0ED011AD0ED020A90ED031AAC
:10029000B0EEC00A81ED000AF0EEE11AB0EEE00A1D
:1002A000C1ED011AF0EEC10A81ED020AC1ED030AA7
:1002B000103010315B1EE3D112F0030208BF70470B
:1002C000B2F1004F23D2002AD8BF7047001F091F88
:1002D00012F0010F07D090ED010A001DB0EEC00A28
:1002E00081ED010A091D520808BF704790ED010A0F
:1002F000B0EEC00A81ED010A90ED020A0830B0EEBE
:10030000C00A81ED020A0831521EEFD17047B0ECED
:10031000010A521EB0EEC00AA1EC010AF7D17047E3
:10032000D0ED060A90ED070A002930EE801A90ED14
:10033000080A31EE001A80ED001AB0EE001A51EEF4
:10034000400AC0ED010A80ED020A08BF7047002193
:10035000C1600161416170470021C160016141617B
:100360007047000000209FEDFE0AFE4ADFEDFE0A06
:1003700002EB8001401C81ED080AC0B2C1ED0B0AFE
:100380000328F5D37047F74A002002EB8001D1ED36
:10039000080A91ED2D0AF4EEC00AF1EE10FA01D22E
:1003A00081ED080AD1ED0B0AF4EEC00AF1EE10FA65
:1003B00001DD81ED0B0A401CC0B20328E5D3704774
:1003C0003EB50B46B0F8481009040091B0F84A1049
:1003D000009A09040191B0F84C1009040291E14916
:1003E0004C6E121B0092019A8C6E121B0192029AA3
:1003F000C96E511A0291816EB0F844006A4680B20B
:1004000023F0B6FA3EBDF0B5D64F00242546D7F806
:1004100094208DB02E46012A01D1C7F8946009A915
:10042000FFF7CEFF05A823F087FC05990998602205
:10043000A0EBA130099006990A98A0EBA1300A9090
:1004400007990B98A0EBA130C8490B90081F05F045
:1004500016FB0DF1240CC5489CE80E00143080E812
:100460000E00684623F018FDC04960226C31081F59
:1004700005F005FBBD489DE80E00803080E80E00C9
:1004800000210922D7F82C04401CC7F82C0401EBEA
:10049000410007EB8000DDF800C0D0F84C33491C68
:1004A00093FBF2F31C44D0F85033092993FBF2F389
:1004B0001D44D0F8543393FBF2F31E44D0F8B83304
:1004C00093FBF2F363440093D0F8BC33DDF804C02F
:1004D00093FBF2F363440193D0F8C003029B90FBBB
:1004E000F2F018440290CDDB002C00DA6442002DBB
:1004F00000DA6D42002E00DA76420098002800DA19
:10050000404200900198002800DA40420190029891
:10051000002800DA40420290009900208C4200DA64
:10052000012001998D4200DA401C02998E4200DAC6
:10053000401CD7F82C14092900DB401C04280DD1DD
:1005400097F8240402280BD901468648D7F82824B6
:10055000643024F0C5FB012024F0BCFB0DB0F0BDDD
:1005600024F0A6FBFAE72DE9F0417E4D00272DEDA2
:10057000048B06463C4685F824749FED7D9B9FEDD9
:100580007E8BC5F8287405EB8400D5ED0F0A90ED3D
:10059000330AB4EEE00AF1EE10FA1EDB95ED140B0F
:1005A00053EC182B51EC100B05F059FB41EC100BE0
:1005B00020F006FC53EC192B51EC100B05F0B0FCAD
:1005C0000BD295F824040121401C85F82404D5F8A9
:1005D0002804A1400843C5F82804641CE4B2032C95
:1005E000D1D395F82404B8B3002406EBC40090EDF1
:1005F000000B51EC100B05F061FC05EB8401641C51
:10060000E4B24866032CF0D3C5F82C74A86804281B
:1006100002DA95F82404A86095F8240403281BD175
:100620005749E868884217DC95ED140B53EC182BFA
:1006300051EC100B05F013FB41EC100B20F0C0FB4C
:1006400053EC192B51EC100B05F06AFC04D2A8688E
:10065000032801D10420A8604A49286988421DDA8C
:100660004949E868884219DC95ED140B53EC182BC6
:1006700051EC100B05F0F3FA41EC100B20F0A0FB4D
:100680009FED421B51EC100B53EC112B05F048FC75
:1006900004D2A868042801D10520A860BDEC048B11
:1006A000BDE8F0812DE9F0412E4C0746D4F8A404B2
:1006B000012802D000252846F2E73649F7EE000A65
:1006C000A1F1E800B7EE000A064600F0BCFD254A9D
:1006D0003046503202F5AC7101F057F80500EAD00F
:1006E0006068401C606094ED140B51EC100B05F039
:1006F000E5FBB96E23F009FF00EE100ADFED260AD4
:10070000B8EEC00A20EE200A10EE100A05F0F5FB44
:10071000C4E9140194ED6A0B51EC100B05F0CEFB0B
:10072000A06594ED6C0B51EC100B05F0C7FBE06578
:1007300094ED6E0B51EC100B05F0C0FB206694EDB0
:10074000680B9FED161B51EC100B53EC112B05F0B1
:10075000FFFBB0D231469FED130AF0EE400A23E0D2
:1007600000401CC62888012000401C46788B0120D0
:100770009A9999999999B93F000000000000F03FBB
:10078000AE47E13D00007A43BC74933C9CC420B06A
:100790007268913FF089012000008037000000005E
:1007A0000070A740CDCCCC3E084600F04CFD82E75F
:1007B000D0ED030A90ED040A00210122F4EEC00AF4
:1007C0000223F1EE10FA12DD90ED051AF4EEC10AE3
:1007D000F1EE10FA0BDDB4EEC10A0164F1EE10FA8D
:1007E00002DBC0E911237047C0E911327047B4EE53
:1007F000E00AF1EE10FA12DD90ED051AB4EEC10A2E
:10080000F1EE10FA0BDDF4EEC10A0264F1EE10FA1B
:1008100002DBC0E911137047C0E911317047F4EEF3
:10082000C00A0364F1EE10FA02DBC0E9111270474E
:10083000C0E911217047002319469FEDFE0AC364E9
:1008400000EB8102491C82ED000A82ED090A0329AE
:10085000F6DB0121C0E91D13704730B504461420B2
:10086000A0650A202066002584F870502046FFF716
:10087000E2FF656530BD70B52DED048B86B069462D
:10088000FFF79EFD9FEDEC8B1FED3D9A00246E4619
:1008900003AD56F8240000EE100A05EB8400B8EE14
:1008A000C00A20EE090A80ED000A20EE000A10EED0
:1008B000100A05F022FB53EC182B05F02FF941EC40
:1008C000180B641C032CE4DBB0EE480AF0EE680A57
:1008D00020F02CFDDA4EB0EE408AF0EE608A002463
:1008E00055F8240005F009FB53EC182B05F02FFAFE
:1008F00005F046FB00EE100A06EB840000F5806070
:10090000641CD0ED0C0A032C30EE200A80ED0C0A9A
:10091000E6DBD6F88404401CC6F884040120C6F83F
:10092000AC0406B0BDEC048B70BD70B505462DED72
:10093000028B86B004AA03A9684623F081FC9FEDD0
:10094000BE8B00246E4606EB840090ED000A20EE7C
:10095000000A10EE100A05F0D0FA53EC182B05F03F
:10096000DDF841EC180B641C032CECDBB0EE480AFC
:10097000F0EE680A20F0DAFCB0EE408AF0EE608A11
:10098000002456F8240005F0B8FA53EC182B05F0B3
:10099000DEF905F0F5FA00EE100A05EB8400641CA0
:1009A000D0ED000A032C30EE200A80ED000AE8DBCF
:1009B000686D401C68650120E86706B0BDEC028BDD
:1009C00070BDF0B504460021F7EE001A9FED992A9C
:1009D00094ED140A04EB8100B8EEC01AD0ED000AC1
:1009E00080EE810AB5EEC00AF1EE10FA02DBB0EE3D
:1009F000401A01E0B1EE401AD0ED060AF5EEC00A49
:100A0000F1EE10FA01DAF1EE600A71EE600AC0ED63
:100A10000C0A80ED060A94ED0F1AD0ED092A71EE4A
:100A2000610A00EEA20AC0EE010AC0ED090AF5EE65
:100A3000C00AF1EE10FA01DAF1EE600AC0ED030A25
:100A4000491C80ED002A0329C2DB2046FFF7B0FED7
:100A5000E06CB0F57A7F01DA401CE06494F87070C5
:100A600000210526042303250122206C062F09D22C
:100A7000DFE807F00309102B52376267A267E164D1
:100A800084F87020F0BDE06F0128FBD1022084F8CB
:100A900070000DE004EB8000D4ED190A90ED030A1C
:100AA000B4EEE00AF1EE10FA04DB84F8703031E0C5
:100AB000A167F0BDD4ED1A0AB4EEE00AF1EE10FA27
:100AC00022D934E06267A267F0BD04EB8000D4ED68
:100AD000190A90ED030AB4EEE00AF1EE10FAE4DA36
:100AE000F0BD04EB8000D4ED1A0A90ED030AB4EED9
:100AF000E00AF1EE10FA07D9006B524EB04206D967
:100B0000216EE06C8842EBDB84F87050DAE784F801
:100B10007030E1646167CBE704EB8000D4ED1B0A21
:100B200090ED030AB4EEE00AF1EE10FAD8D884F89A
:100B30007060E164C6E710B5044600EE104AB8EEF6
:100B4000C00ADFED410A20EE200A9FED401AC0EEF8
:100B5000010AB6EE000A20EE800A10EE100A05F037
:100B6000CCF941EC100B20F01FF89FED391B51EC34
:100B7000100B53EC112B05F078F805F09FF90146A6
:100B80002F48C0E9204110BD2DE9F04F00242DED84
:100B9000028B91B00546049405940694C06E44F609
:100BA0002061274E884206DBD6F88010884210D09C
:100BB000FFF7C1FF0DE0D6F848231044C6F84803FC
:100BC00088427DDBE96E814201D0FFF7B4FFC6F8B1
:100BD0004843286BC6F8B0042846FFF74CFE06F5DC
:100BE000906003C8814204DB1B48FFF7EAFEC6F8A9
:100BF0008444D6F8A804012802D12846FFF703FC54
:100C0000D6F8A40401285BD104A823F063F99DED74
:100C1000040ADDED050A20EE000A00EEA00ADDED73
:100C2000060A00EEA00A20F0BEFB86ED030ADFED07
:100C30000B0A15E0000000000000000000000000AA
:100C400028880120CDCC4CBD368D27400024744926
:100C5000000000000000D041588C012000008046B8
:100C600020EE200AC149A146ADF82040BDEEC00AE1
:100C7000099110EE100AADF81C00ADF81E4007A84F
:100C800002F0C8FD684623F067F9316F009823F041
:100C90003CFC0446716F019823F037FC0444B16FAB
:100CA000029823F032FC0444F16F039823F02DFCEA
:100CB00004EB00089DE80F0000240DF1340A00E069
:100CC000A2E006F170079FEDAA8A87E80F000DF1F8
:100CD000280B05EB4407A96E37F8480F000423F0F2
:100CE00014FC00EE100A4AF8240006EB8400B8EE6B
:100CF000C00A20EE080A80ED050A388801044BF886
:100D00002410641CE4B2032CE3D398480AA9E83801
:100D1000044600F068FB3168D6F82803884273DB8C
:100D200095ED390AD6ED360AB8EEC00AF5EEC00ADE
:100D300020EE080AF1EE10FA05D070EE600AF0EE2F
:100D4000E00AC6ED370A86ED360AB068062818D2E2
:100D5000DFE800F0030303030D249FED860AC8209B
:100D600086ED0E0AB7EE000A86ED0F0A08E09FED49
:100D7000820A86ED0E0A9FED810A642086ED0F0A35
:100D80003064288EC005099812D402F052FC05F098
:100D90004DF800EE100A5FED530A11E09FED780A5E
:100DA00086ED0E0A9FED770A322086ED0F0AE7E7FF
:100DB00002F099FB05F03AF800EE100ADFED720A36
:100DC000982180EE201A86ED041A099804F07EFE20
:100DD000D6F88410414543DA96ED040AB5EEC00A10
:100DE000F1EE10FA3CDDD6ED0E0AB4EEE00AF1EEBB
:100DF00010FA35D2316C7068884206DA2846FFF75F
:100E000051FC002859D00CE056E06049D6F8B000FB
:100E1000884206DB2846FFF745FC00284DD0C6F87F
:100E20000490002006EB8001401C91ED050AC0B241
:100E300081ED2D0A0328F5D3FFF7A5FA002006EB74
:100E40008001401C91ED080AD1ED0B0AC0B20328C5
:100E500030EE600A81ED330AF1D34D48FFF783FB92
:100E6000002006EB8001401C91ED260AD1ED050A19
:100E7000C0B2032830EE600AB0EEC00A81ED290A44
:100E8000EFD396ED290AD6ED2A0A002030EE200A8B
:100E9000D6ED2B0A30EE200A86ED2C0A06EB8001F7
:100EA000401C91ED050AC0B281ED260A0328F5D356
:100EB000E821204604F00AFE002011B0BDEC028BB0
:100EC000BDE8F08F10B54FF49761324804F0FEFD95
:100ED000304C0A20206040072067FFF743FA04F5F2
:100EE0008660FFF7BAFC2068C4F880049FED2A0AE8
:100EF00004F580601E2180ED1B0A9FED280AC4F8CE
:100F00008C1480ED260A9FED260A80ED250A9FEDC0
:100F1000250A80ED270A192002F02CFF002010BDC1
:100F2000012240F25231AFF29F3023F097BDAFF271
:100F3000A73024F047B910B5FFF7C4FF002805D14A
:100F4000AFF22300BDE8104023F048BE10BD10B53D
:100F5000AFF2CB3024F036F9AFF23B00BDE81040E1
:100F600024F062B90B48806870470000D88A0120DD
:100F7000000080370080BB44000096439A99993F57
:100F8000000070423333B33F0050C347CDCC4C3DDB
:100F9000D08901202888012000000042CDCCCC3E21
:100FA000CDCC4C3F3333333FFE4880ED3A0A704797
:100FB0002DE9F047DFF8EC9300262DED0A8B04466F
:100FC000B0EE408AF0EE608A884635463746D9F85A
:100FD000AC0004F041FF53EC182B04F0A1FF6FD3D9
:100FE000D9F8B00004F038FF53EC182B04F0B0FF30
:100FF000F5D3B4F90000B4F90610401A04F02CFF40
:1010000053EC182B04F08CFF00D20126B4F90E002B
:10101000B4F91410401A04F01FFF53EC182B04F01D
:101020007FFF00D2761CB4F91C00B4F92210401ADC
:1010300004F012FF53EC182B04F072FF00D2761C60
:101040009FEDD90B012E3BDC53EC102B51EC180B10
:1010500004F00BFE8946064649EC180BB4F9000073
:10106000B4F90610401A04F0F7FE53EC182B04F004
:101070006FFF00D20125B4F90E00B4F9141049EC49
:10108000186B401A04F0E8FE53EC182B04F060FFD4
:1010900000D26D1CB4F91C00B4F9221049EC186B95
:1010A000401A04F0D9FE53EC182B04F051FF00D283
:1010B0006D1C002D05DD0220BDEC0A8BBDE8F0871C
:1010C00065E000269FEDBACB06EB460904EB8905E7
:1010D000B5F90A0004F0C0FE98ED048B53EC182B10
:1010E00004F0BDFD41EC190BB5F9040004F0B4FEA9
:1010F00053EC182B04F0B3FD53EC192B04F0B5FDA1
:1011000041EC190BB5F9080004F0A6FE98ED028B2E
:1011100053EC182B04F0A3FD41EC1A0BB5F90200B7
:1011200004F09AFE53EC182B04F099FD53EC1A2BA3
:1011300004F09BFD41EC1A0BB5F9060004F08CFE9F
:1011400098ED008B53EC182B04F089FD41EC1B0B40
:1011500034F9290004F080FE53EC182B04F07FFDD5
:1011600053EC1B2B04F081FD53EC1A2B04F0D6FC3E
:1011700053EC192B04F0D2FC53EC1C2B04F0D0FEE2
:1011800000D27F1C761C032E9EDB022F01DA012089
:1011900092E7002090E788490A684B68D00180EA0E
:1011A000D20080EA031048608B68520380EAC303D0
:1011B00082EA5312520282EAD0208B6008607047A4
:1011C00010B52DED048BF0EE408AFFF7E4FF00EE42
:1011D000100AB8EE400ADFED790A20EE200A9FEDF2
:1011E000789A20EE090A1FF043FDB0EE408AFFF71F
:1011F000D2FF00EE100AB8EE400A20EE090AB5EE62
:10120000C00AF1EE10FA01D1B7EE000A10EE100A92
:1012100004F073FE41EC100B1FF0DEFD9FED691B27
:1012200051EC100B53EC112B04F01FFD04F0A8FE41
:1012300000EE100A20F0B7F820EE280A20EE080A87
:10124000BDEC048B10BD2DE9F04105462DED048B5E
:10125000B0EE608AF0EE408A0F4618EE100A04F0F5
:101260004CFE97ED301B53EC112B04F0FEFC41ECCF
:10127000190B18EE900A04F040FE95ED301B53EC6C
:10128000112B04F0F2FC53EC192B04F047FC002462
:10129000C5E9300118EE100A04F02FFE07EBC40870
:1012A00098ED001B53EC112B04F0DFFC41EC190B03
:1012B00018EE900A04F021FE05EBC40696ED001B23
:1012C00053EC112B04F0D1FC53EC192B04F026FC49
:1012D000C6E9000118EE100A04F00FFE98ED241B79
:1012E00053EC112B04F0C1FC41EC190B18EE900AE1
:1012F00004F003FE96ED241B53EC112B04F0B5FC17
:1013000053EC192B04F00AFC641CC6E92401062CDA
:10131000C0DB002418EE100A04F0EFFD41EC100BC6
:1013200007EBC40090ED121B51EC100B53EC112B8A
:1013300004F09BFC41EC190B18EE900A04F0DDFD63
:1013400005EBC40696ED121B53EC112B04F08DFC3B
:1013500053EC192B04F0E2FB641CC6E91201092CC2
:10136000D8DB002418EE100A04F0C7FD41EC100B86
:1013700007EBC40090ED0C1B51EC100B53EC112B40
:1013800004F073FC41EC190B18EE900A04F0B5FD63
:1013900005EBC40696ED0C1B53EC112B04F065FC19
:1013A00014E00000988F01200000000000000440BD
:1013B0000000000000000000E0090020DB0FC94031
:1013C0000000802F00000000000000C053EC192B2B
:1013D00004F0A4FB641CC6E90C01032CC2DBBDECC9
:1013E000048BBDE8F0812DE9F04F04462DED068B0E
:1013F00083B00D46086804F02FFD41EC1A0B6868B5
:1014000004F02AFD41EC190BA86804F025FD41EC1D
:10141000180B94ED300B9FEDFE1B51EC100B53ECB1
:10142000112B04F07BFBC4E9300194ED0C0B53EC61
:101430001A2B51EC100B04F071FBC4E90C0194ED74
:101440000E0B53EC192B51EC100B04F067FBC4E9A5
:101450000E0194ED100B53EC182B51EC100B04F013
:101460005DFBC4E9100153EC1A2B51EC1A0B04F08C
:10147000FCFB029194ED001B064653EC112B04F08B
:101480004DFBC4E9000153EC192B51EC1A0B04F08D
:10149000ECFB894649EC100B94ED021B054653EC1E
:1014A000112B51EC100B04F039FBC4E9020153EC91
:1014B000182B51EC1A0B04F0D8FB8B464BEC100B9D
:1014C00094ED041B804653EC112B51EC100B04F0EF
:1014D00025FBC4E9040153EC192B51EC190B04F062
:1014E000C4FB019194ED061B074653EC112B04F04D
:1014F00015FBC4E9060153EC182B51EC190B04F051
:10150000B4FB009194ED081B824653EC112B04F0C0
:1015100005FBC4E9080153EC182B51EC180B04F03F
:10152000A4FB94ED0A1B53EC112B04F0F7FAC4E969
:101530000A01029953EC1A2B41EC106B51EC100B81
:1015400004F093FB94ED121B53EC112B04F0E6FA1C
:1015500049EC105BC4E9120153EC192B51EC100B50
:1015600004F083FB94ED141B53EC112B04F0D6FA1A
:101570004BEC108BC4E9140153EC182B51EC100BFD
:1015800004F073FB94ED161B53EC112B04F0C6FA18
:1015900049EC105BC4E9160153EC1A2B51EC100B0B
:1015A00004F063FB94ED181B53EC112B04F0B6FA16
:1015B000C4E91801019953EC192B41EC107B51EC53
:1015C000100B04F052FB94ED1A1B53EC112B04F09A
:1015D000A5FAC4E91A010099554641EC10AB0E4634
:1015E00053EC182B51EC100B04F03FFB94ED1C1B3B
:1015F00053EC112B04F092FAC4E91C0153EC1A2BA2
:1016000051EC180B04F031FB53EC1A2B04F02DFBBA
:1016100094ED1E1B53EC112B04F080FA46EC105B8A
:10162000C4E91E0153EC192B51EC100B04F01DFB07
:1016300094ED201B53EC112B04F070FAC4E9200147
:1016400053EC182B51EC180B04F00FFB894649ECB6
:10165000100B074653EC182B51EC100B04F005FB54
:1016600094ED221B53EC112B04F058FAC4E922012B
:1016700053EC1A2B51EC1A0B04F0F7FA884648EC9D
:10168000100B054653EC1A2B51EC100B04F0EDFA3D
:1016900053EC1A2B04F0E9FA94ED241B53EC112BB4
:1016A00004F03CFAC4E9240153EC192B51EC190B5A
:1016B00004F0DBFA8A464AEC100B064653EC192B71
:1016C00051EC100B04F0D1FA53EC192B04F0CDFAC5
:1016D00094ED261B53EC112B04F020FA49EC107BFF
:1016E000C4E9260153EC182B51EC100B04F0BDFAA1
:1016F00053EC182B04F0B9FA94ED281B53EC112B82
:1017000004F00CFA48EC105BC4E9280153EC192BE7
:1017100051EC100B04F0A9FA53EC192B04F0A5FAC4
:1017200094ED2A1B53EC112B04F0F8F948EC105BF4
:10173000C4E92A0153EC182B51EC100B04F095FA74
:1017400053EC182B04F091FA94ED2C1B53EC112B55
:1017500004F0E4F94AEC106BC4E92C0153EC182BAB
:1017600051EC100B04F081FA53EC182B04F07DFAC5
:1017700094ED2E1B53EC112B04F0D0F9C4E92E018B
:1017800003B0BDEC068BBDE8F08F2DE9F04F93461A
:101790002DED108B0D46044693B090ED0CEB53EC01
:1017A0001E2B51EC1E0B04F060FA94ED000B41EC83
:1017B000190B8DED080B94ED308B53EC102B51EC85
:1017C000180B04F052FA53EC192B04F048FA94ED7C
:1017D0000EDB41EC1F0B53EC1D2B51EC1D0B04F0E9
:1017E00044FA94ED060B41EC190B8DED060B53EC0E
:1017F000102B51EC180B04F038FA53EC192B04F0B1
:101800002EFA41EC100B8DED040B94ED10CB03E0A0
:10181000000000000000F03F53EC1C2B51EC1C0BAF
:1018200004F023FA94ED0A0B41EC190B8DED020B39
:1018300053EC102B51EC180B04F017FA53EC192B46
:1018400004F00DFA41EC110B53EC1D2B8DED001B38
:1018500051EC1E0B04F009FA94ED020B41EC190B4C
:1018600053EC102B51EC180B04F0FFF953EC192B2F
:1018700004F0F5F941EC1B0B53EC1C2B51EC1E0B47
:1018800004F0F3F994ED040B41EC190B53EC102B1D
:1018900051EC180B04F0E9F953EC192B04F0DFF9C3
:1018A00041EC1A0B53EC1C2B51EC1D0B04F0DDF931
:1018B00094ED080B41EC190B53EC102B51EC180B69
:1018C00004F0D3F953EC192B04F0C9F99DED020B88
:1018D00041EC190B53EC102B51EC1E0B04F0C5F925
:1018E00041EC110B51EC180B8DED101B94ED160B08
:1018F00053EC102B04F0B9F941EC110B51EC1E0B19
:101900008DED0E1B9DED060B53EC102B04F0ADF985
:1019100041EC110B51EC180B8DED0C1B94ED140BDD
:1019200053EC102B04F0A1F941EC110B51EC1E0B00
:101930008DED0A1B9DED080B53EC102B04F095F96F
:1019400094ED120B41EC1E0B53EC102B51EC180BC9
:1019500004F08BF953EC1E2B04F081F99DED0A1B6A
:1019600053EC112B04F0DAF89DED0C1B53EC112B0A
:1019700004F075F99DED0E1B53EC112B04F0CEF81D
:101980009DED101B53EC112B04F069F99FEDFE1B2C
:1019900053EC112B04F069F99DED020B41EC1E0B89
:1019A00053EC102B51EC1D0B04F05FF941EC110BC3
:1019B00051EC180B8DED101B94ED1C0B53EC102B00
:1019C00004F053F941EC110B51EC1D0B8DED0E1B86
:1019D0009DED060B53EC102B04F047F941EC110B75
:1019E00051EC180B8DED0C1B94ED1A0B53EC102BD6
:1019F00004F03BF941EC110B51EC1D0B8DED0A1B72
:101A00009DED080B53EC102B04F02FF994ED180BFF
:101A100041EC1D0B53EC102B51EC180B04F025F985
:101A200053EC1D2B04F01BF99DED0A1B53EC112BFD
:101A300004F074F89DED0C1B53EC112B04F00FF91E
:101A40009DED0E1B53EC112B04F068F89DED101B5F
:101A500053EC112B04F003F99FEDCB1B53EC112B2E
:101A600004F003F99DED020B41EC1D0B53EC102B20
:101A700051EC1C0B04F0F9F841EC110B51EC180B74
:101A80008DED021B94ED220B53EC102B04F0EDF8BE
:101A900041EC110B51EC1C0B8DED0A1B9DED060B5F
:101AA00053EC102B04F0E1F841EC110B51EC180B46
:101AB0008DED0C1B94ED200B53EC102B04F0D5F89E
:101AC00041EC110B51EC1C0B8DED061B9DED080B31
:101AD00053EC102B04F0C9F894ED1E0B41EC1C0BD9
:101AE00053EC102B51EC180B04F0BFF853EC1C2BEB
:101AF00004F0B5F89DED061B53EC112B04F00EF825
:101B00009DED0C1B53EC112B04F0A9F89DED0A1B65
:101B100053EC112B04F002F89DED021B53EC112B3A
:101B200004F09DF89FED981B53EC112B04F09DF8E9
:101B30009DED040B41EC180B53EC102B51EC1F0BDB
:101B400004F093F810919DED001B824653EC112B8D
:101B500004F08BF841EC110B53EC192B8DED0A1BA3
:101B600051EC1F0B04F081F853EC192B04F07DF8B5
:101B700041EC110B53EC1A2B8DED081B9DED040B62
:101B800051EC100B04F071F8814653EC1A2B1191B3
:101B900004F06BF841EC110B8DED061B9FED7C0BF7
:101BA00051EC1B0B53EC102B04F05FF853EC1A2B89
:101BB00004F05BF853EC192B04F057F89DED001B73
:101BC00041EC1C0B53EC1B2B51EC110B04F04DF8AA
:101BD000074653EC1B2B029104F047F853EC1C2BE7
:101BE00004F03DF89DED061B53EC112B03F096FF1E
:101BF0009DED081B53EC112B03F090FF9DED0A1B8C
:101C000053EC112B04F02BF841EC1C0B9FED620BF5
:101C100053EC102B04F084F97DD053EC192B51ECCC
:101C20001B0B04F022F853EC182B04F01EF841ECC7
:101C3000110B53EC1D2B8DED0E1B029941EC107B0B
:101C400051EC100B04F011F841EC110B8DED0C1B55
:101C50009DED000B53EC102B9DED040B51EC100B84
:101C600004F003F853EC1E2B03F0FFFF41EC110BC3
:101C700053EC192B8DED081B51EC190B03F0F5FFFC
:101C800053EC1E2B03F0F1FF41EC110B53EC1D2B19
:101C90008DED0A1B51EC190B03F0E7FF41EC110B22
:101CA00053EC182B8DED061B9DED040B51EC100B26
:101CB00003F0DBFF9DED061B53EC112B03F0CFFF70
:101CC00053EC1A2B03F0D1FF9DED0A1B53EC112BA3
:101CD00003F024FF9DED081B53EC112B03F0BFFF15
:101CE0009DED0C1B53EC112B03F018FF9DED0E1B0B
:101CF00053EC112B03F0B3FF41EC100B53EC1A2BF8
:101D00008DED060B51EC1B0B03F0AFFF884606462A
:101D100048EC100B00E065E153EC182B51EC100B74
:101D200003F0A3FF41EC110B53EC1E2B8DED041BB4
:101D3000029941EC107B51EC100B03F096FF41EC43
:101D4000110B51EC1F0B8DED021B9DED000B53ECA5
:101D5000102B03F08AFF53EC1D2B03F086FF41ECA0
:101D6000110B53EC1A2B8DED081B51EC1A0B03F0E1
:101D70007CFF53EC1D2B03F078FF41EC110B53EC6F
:101D80001E2B8DED001B0BE0000000000000E03F6B
:101D90000000000000000040000000000000000003
:101DA00051EC1A0B03F061FF41EC1A0B53EC182BAA
:101DB00051EC1F0B03F059FF53EC1A2B03F04FFFAC
:101DC00053EC192B03F051FF9DED001B53EC112B2D
:101DD00003F0A4FE9DED081B53EC112B03F03FFF15
:101DE0009DED021B53EC112B03F098FE9DED041B9F
:101DF00053EC112B03F033FF41EC100B53EC1D2B74
:101E00008DED040B48EC106B51EC100B03F02DFF23
:101E100041EC110B53EC1E2B8DED001B119941EC85
:101E2000109B51EC100B03F020FF41EC110B53EC15
:101E3000182B8DED021B109941EC10AB51EC100BDF
:101E400003F013FF41EC1A0B53EC1B2B51EC1B0B53
:101E500003F00BFF53EC182B03F007FF41EC180BBA
:101E600053EC1E2B51EC1B0B03F0FFFE41EC1B0B44
:101E700053EC1D2B51EC1F0B03F0F7FE53EC1B2B07
:101E800003F0EDFE53EC192B03F0EFFE53EC182B8F
:101E900003F044FE53EC1A2B03F0E1FE9DED021B10
:101EA00053EC112B03F03AFE9DED001B53EC112B6C
:101EB00003F0D5FE9DED060B41EC190B53EC1C2BEA
:101EC00051EC100B03F043FF41EC180B53EC1C2BAF
:101ED00085ED008B9DED040B51EC100B03F037FFEB
:101EE00041EC1A0B53EC1C2B85ED02AB51EC190B9A
:101EF00003F02DFF41EC190B85ED049B94ED100BC5
:101F000053EC102B03F0B1FE94ED0E0B41EC1B0BC8
:101F100053EC102B51EC1A0B03F0A7FE94ED0C0BB5
:101F200041EC1C0B53EC102B51EC180B03F09DFEF5
:101F300053EC1C2B03F0F2FD53EC1B2B03F0EEFDD6
:101F40001FED6D1B53EC112B03F08FFE94ED061B60
:101F500094ED000B41EC1B0B53EC112B51EC100BCF
:101F600003F0DCFD94ED0A1B53EC112B03F0D6FDBE
:101F700053EC1B2B03F073FE94ED301B53EC112B31
:101F800003F0E5FE41EC1B0B53EC192B51EC190B44
:101F900003F06BFE41EC190B53EC1A2B51EC1A0BAE
:101FA00003F063FE41EC1A0B53EC182B51EC180BA9
:101FB00003F05BFE53EC1A2B03F0B0FD53EC192B2E
:101FC00003F0ACFD53EC1B2B03F0A8FD41EC100B10
:101FD0001FF0ACF98BED000B012013B0BDEC108BA2
:101FE000BDE8F08F0020F8E72DE9F04F0D462DED0C
:101FF000108B04468BB091ED00AB53EC1A2B51ECD7
:102000001A0B03F032FE94ED0CCB53EC1C2B03F0B7
:102010002CFE53EC1C2B03F028FE94ED30FB41EC1E
:10202000180B53EC1A2B51EC1F0B03F01EFE8B46C2
:102030004BEC100B074653EC1A2B51EC100B03F032
:1020400014FE94ED00EB53EC1E2B03F00EFE53EC4C
:10205000182B03F004FE41EC190B53EC1E2B51EC32
:102060001A0B03F002FE53EC1C2B03F0FEFD4BECAD
:10207000107B94ED121B41EC180B53EC112B51EC1F
:10208000100B03F0F2FD53EC192B03F0EBFD53ECB6
:10209000182B03F043FD41EC1B0B1FEDC30B51EC60
:1020A0001A0B53EC102B03F0E0FD894649EC100BA2
:1020B00095ED029B064653EC192B51EC100B03F0E7
:1020C000D4FD53EC1C2B03F0D0FD94ED0EDB53EC50
:1020D0001D2B03F0CAFD41EC180B1FEDD30B51EC87
:1020E0001F0B53EC102B03F0C0FD824653EC1A2B50
:1020F000069103F0BAFD53EC192B03F0B6FD94EDF5
:10210000021B53EC112B03F0B0FD53EC1B2B03F01F
:1021100005FD53EC182B03F0A2FD41EC180B53EC1A
:102120001C2B51EC1A0B03F0A0FD049194ED06BB9F
:10213000804653EC1B2B03F098FD41EC110B4BEC4C
:10214000107B8DED001B94ED141B51EC100B53EC28
:10215000112B03F08AFD53EC182B03F083FD9DED4A
:10216000001B53EC112B03F0D9FC41EC110B49EC93
:10217000106B8DED001B95ED048B51EC100B53ECA7
:10218000182B03F072FD53EC1C2B03F06EFD94ED45
:1021900010CB53EC1C2B03F068FD41EC110B53ECFE
:1021A0001A2B8DED021B069941EC10AB51EC100B74
:1021B00003F05BFD53EC182B03F057FD94ED041B6B
:1021C00053EC112B03F051FD9DED001B53EC112B33
:1021D00003F0A4FC9DED021B53EC112B03F03FFD1B
:1021E00041EC100B8DED000B049994ED0AAB41EC22
:1021F000108B53EC1A2B51EC100B03F036FD41EC15
:10220000110B4BEC107B8DED021B94ED161B51EC6A
:10221000100B53EC112B03F028FD9DED001B53EC2C
:10222000112B03F01FFD9DED021B53EC112B03F04E
:1022300075FC41EC110B8DED001B9FEDFE0B51EC7D
:102240001E0B53EC102B03F010FD53EC1E2B03F070
:102250000CFD41EC110B8DED021B9FEDF60B51ECCB
:102260001F0B53EC102B03F000FD059194ED241B84
:10227000814653EC112B03F0F8FC9DED001B53EC51
:10228000112B03F04BFC9DED021B53EC112B03F0C3
:10229000E6FC41EC110B53EC1E2B8DED001B51ECB9
:1022A000190B03F0E2FC53EC1D2B03F0DEFC41ECB8
:1022B000110B53EC192B8DED081B51EC1F0B03F088
:1022C000D4FC039194ED181B064653EC112B03F03C
:1022D000CCFC9DED001B53EC112B03F0C3FC9DEDDA
:1022E000081B53EC112B03F019FC41EC110B8DED85
:1022F000001B9FEDD20B51EC1E0B53EC102B03F087
:10230000B4FC8B464BEC100B054653EC1B2B51ECED
:10231000100B03F0AAFC41EC110B8DED081B9FED97
:10232000C70B51EC1F0B53EC102B03F09EFC0491D8
:1023300094ED2A1B804653EC112B03F096FC9DED87
:10234000001B53EC112B03F0E9FB9DED081B53EC34
:10235000112B03F084FC41EC110B53EC1E2B8DED83
:10236000001B51EC180B03F080FC53EC1C2B03F00A
:102370007CFC41EC1E0B53EC182B51EC1F0B03F0B3
:1023800074FC029194ED1E1B074653EC112B03F0D5
:102390006CFC9DED001B53EC112B03F063FC53EC24
:1023A0001E2B03F0BBFB4BEC105B41EC1F0B53EC03
:1023B0001A2B51EC100B03F058FC41EC1E0B049946
:1023C00094ED2C1B41EC108B53EC112B51EC100BAA
:1023D00003F04BFC53EC1F2B03F0A0FB53EC1E2B24
:1023E00003F03DFC41EC1F0B53EC192B51EC190B86
:1023F00003F03BFC53EC1D2B03F037FC53EC1D2B7F
:1024000003F033FC41EC1E0B039953EC192B41EC08
:10241000106B51EC100B03F028FC53EC1B2B03F05A
:1024200024FC53EC1F2B03F079FB53EC1E2B03F021
:1024300016FC41EC1F0B53EC1B2B51EC190B03F05A
:1024400014FC53EC1D2B03F010FC41EC1E0B039904
:1024500094ED1A1B41EC106B53EC112B51EC100B4B
:1024600003F003FC53EC1F2B03F0FCFB53EC1E2B7F
:1024700003F054FB41EC1F0B9FED720B51EC190B59
:1024800053EC102B03F0F1FB53EC182B03F0EDFB96
:1024900053EC1D2B03F0E9FB53EC1C2B03F0E5FB85
:1024A00041EC1E0B069953EC192B41EC10AB51EC8F
:1024B000100B03F0DAFB53EC182B03F0D6FB94ED72
:1024C000081B53EC112B03F0D0FB53EC1F2B03F034
:1024D00025FB53EC1E2B03F0C2FB41EC1E0B53EC0F
:1024E0001D2B51EC190B03F0C0FB53EC1A2B03F01E
:1024F000BCFB41EC190B039994ED1C1B41EC106BD8
:1025000053EC112B51EC100B03F0AFFB53EC1E2BD3
:1025100003F0A8FB53EC192B03F000FB41EC1D0B5F
:102520009FED44EB51EC1B0B53EC1E2B03F09DFB7A
:1025300053EC1B2B03F099FB41EC190B059994ED1F
:10254000261B41EC109B53EC112B51EC100B03F0AC
:102550008CFB53EC1D2B03F0E1FA53EC192B03F029
:102560007EFB41EC1D0B53EC1B2B51EC180B03F0C5
:102570007CFB53EC1C2B03F078FB41EC190B02990C
:1025800094ED201B41EC107B53EC112B51EC100B04
:1025900003F06BFB53EC1D2B03F064FB53EC192B86
:1025A00003F0BCFA9FED250B41EC190B53EC102BFB
:1025B00051EC1B0B03F059FB53EC1A2B03F055FBAA
:1025C00041EC1B0B049994ED2E1B41EC108B53EC4A
:1025D000112B51EC100B03F048FB53EC192B03F0BB
:1025E0009DFA53EC1B2B03F03AFB41EC1B0B53EC15
:1025F000182B51EC180B03F038FB53EC1C2B03F099
:1026000034FB53EC1C2B03F030FB41EC190B02990B
:1026100053EC182B41EC107B51EC100B03F025FB15
:1026200053EC1A2B03F021FB53EC1B2B03F076FA2F
:102630000CE00000000000000000D03F000000009F
:102640000000E03F000000000000004053EC192BA8
:1026500003F005FB41EC190B53EC1A2B51EC180B52
:1026600003F003FB53EC1C2B03F0FFFA41EC180BB7
:10267000029994ED221B41EC107B53EC112B51EC91
:10268000100B03F0F2FA53EC192B03F0EBFA53ECB6
:10269000182B03F043FA41EC180B53EC1E2B51ECB2
:1026A0001A0B03F0E2FA53EC1A2B03F0DEFA41ECBA
:1026B000190B059994ED281B41EC109B53EC112B41
:1026C00051EC100B03F0D1FA53EC182B03F026FA5F
:1026D00053EC192B03F0C3FA41EC100B0BB07DE463
:1026E00030B50446B0F88C0089B000040690B4F808
:1026F0008E000D4600040790B4F890008834000462
:10270000089002A821F0E4FA029906982B46401A94
:1027100006900399079806AA401A0790049908980A
:10272000401A08902088616A80B221F021F909B02E
:1027300030BDF0B50D462DED048B87B06946FFF72F
:10274000CFFF9FEDFE8B00246F469FEDFE9A03AEF8
:1027500057F8240000EE100A06EB8400B8EEC00A19
:1027600020EE090A80ED000A20EE000A10EE100AA1
:1027700003F0C3FB53EC182B03F0D0F941EC180B1A
:10278000641C032CE4DBB0EE480AF0EE680A1EF08D
:10279000CDFDB0EE408AF0EE608A002456F82400A9
:1027A00003F0ABFB53EC182B03F0D1FA03F0E8FB7A
:1027B00000EE100A05EB8400641CD0ED000A032C27
:1027C00030EE200A80ED000AE8DB686D401C686589
:1027D00021F0D2FDE86707B0BDEC048BF0BD2DE918
:1027E000F041044621F01EFB40BB21F09FFA042873
:1027F00024D0D54920460E46FFF79BFFD34DD5E99F
:102800005C01814205DB3046FEF7DBF80020C5F8AD
:102810007401208E4FF00406C00515D504F1180090
:1028200021F0F2FA8009B0F5C87F0AD2D5F8B800D5
:10283000002850DD401EC5F8B8004AE00120BDE880
:10284000F081C5F8B86044E0D4F8A010D5F81401C0
:10285000081A01D4034600E04342BB4A4FF4A02CBF
:10286000583A634505DDD4E929035365C2E91310DD
:102870002FE00312D4F8A470D5F818015B43381A7E
:1028800001D4864601E0C0F1000EE64505DDD4F82E
:10289000A800D164C2E914701BE0001200FB0033F1
:1028A000D4F8A800D5F81C11401A01D4014600E064
:1028B000414261450DDC001200FB0030B0F5403FA5
:1028C000B4DBA034C5F8B86094E80B004C3282E861
:1028D0000B000020B3E70220B1E72DE9F04F9B4C3D
:1028E0002DED028B93B0D4F8A81090ED000B04EB03
:1028F000C10181ED000BD4F8A810491CC4F8A81040
:1029000090ED020B04EBC10181ED000BD4F8A8108F
:10291000491CC4F8A81090ED040B04EBC10080ED35
:10292000000BD4F8A800401CC4F8A800152802DB4E
:102930000020C4F8A800182284490CA803F09FF8CE
:102940001822824904A803F09AF801260DF1300AF2
:102950000DF1100BA146002406EB460808EB04011C
:1029600009EBC1050AEBC40795ED001B97ED000BC1
:1029700053EC112B51EC100B03F0EAFA03D295ED56
:10298000000B87ED000B0BEBC40795ED001B97EDDB
:10299000000B53EC112B51EC100B03F0C1FA03D2D6
:1029A00095ED000B87ED000B641C032CD6DB761C29
:1029B000072ED0DB9DED0C1B9DED040B53EC112B72
:1029C00051EC100B03F04BF99DED0E1B9DED060B2A
:1029D00041EC180B53EC112B51EC100B03F03FF9A9
:1029E00053EC182B03F09CFA0BD39DED0E1B9DEDC1
:1029F000060B53EC112B51EC100B03F030F941ECAA
:102A0000180B9DED101B9DED080B53EC112B51EC99
:102A1000100B03F024F953EC182B03F081FA0BD3BD
:102A20009DED101B9DED080B53EC112B51EC100B81
:102A300003F015F941EC180B13B0B0EE480AF0EEB4
:102A4000680ABDEC028BBDE8F08F10B504462DED91
:102A5000068B9CB0002155200E91CDE90F101190EE
:102A60009FED3B8B0AA821F0FDF812A90AA821F0DE
:102A700094FD16AA0EA912A821F0B2FD6A460AA971
:102A800016A821F0ADFD0198B2EE059A00F59670FA
:102A900001900298B0EE490A00F5967002900398F2
:102AA00000F596700390FEF78BFBBDEEC00A01990E
:102AB00010EE100AB0EE490A08440190FEF780FBC0
:102AC000BDEEC00A029810EE101AB0EE490A084492
:102AD0000290FEF775FBBDEEC00A039910EE100AD6
:102AE00008440390204601A9FEF77DFC94ED300BCD
:102AF0009FED191B51EC100B53EC112B03F028FA2E
:102B00005DD21AAA04A92046FEF73FFE60B39DEDF0
:102B1000080B9FED138B51EC100B53EC182B03F0AB
:102B20009EF841EC100B53EC102B03F09EF841EC97
:102B3000190B9DED060B53EC182B16E0000000005E
:102B40000000000000008037B8900120988F01201D
:102B50000000000000408F400000000000003440F2
:102B60000000000000C0724029E051EC100B03F09F
:102B700076F841EC100B53EC102B03F076F89DED3A
:102B8000040B41EC1A0B53EC182B51EC100B03F017
:102B900066F841EC100B53EC102B03F066F853EC85
:102BA0001A2B02F0BBFF53EC192B02F0B7FF41ECDC
:102BB000100B1EF0BBFBB0EE408AF0EE608A9FED7A
:102BC000FD0B51EC180B53EC102B03F0C0F81CB0AC
:102BD00041EC100BBDEC068B10BD10B5E821F74899
:102BE00002F074FFF648F74920F8BC1F4A0CC28077
:102BF000C181828281834284F048E821E83002F07A
:102C000065FFEF490020C1F8B40010BD2DE9F04385
:102C1000EB4D04462DED108BC3B0006BC5F8A00141
:102C20002046FFF7DCFD00287ED1D5F8941105F190
:102C3000BC08012911D1B4F98C003D90B4F98E0083
:102C40003E90B4F990003F903DA9DC48FEF7CBFBE5
:102C500004F18C01404600F0A4FB1FED48DB9FED22
:102C6000DABB9FEDDBCB9FEDDCAB9FEDDDEBD34E15
:102C7000D5F80801E83E002802DD401EC5F808012D
:102C800096ED300B53EC1D2B51EC100B03F060F95B
:102C90007DD2CA49E822E839684602F0F0FEC7480A
:102CA0003DA9E838FEF79FFBC44940AA20390F46EA
:102CB000A1F1C800FEF769FD00287BD0BF48394666
:102CC000E838FFF791F9B0EE408AF0EE608A95EDB2
:102CD000400B51EC180B53EC102B02F0C0FF96ED9B
:102CE000300B41EC190B53EC1B2B51EC100B02F089
:102CF000B6FF41EC100B51EC190B53EC102B03F009
:102D000026F841EC100B1EF011FB96ED30FBB0EEF7
:102D1000409AF0EE609A53EC1B2B51EC1F0B02F023
:102D20009EFF53EC1F2B00E0E9E002F09EFF41EC18
:102D30001F0B53EC1C2B51EC180B02F096FF53ECBD
:102D40001F2B03F004F841EC100B1EF0EFFAD5F83E
:102D5000E80003F0D2F895ED381B53EC112B02F08C
:102D600084FF53EC192B03F0DBF803D3D5F80801EB
:102D7000002826DD9148E8226946E83802F07FFE07
:102D8000D5F8E80003F0B9F895ED381B01E010E044
:102D900010E053EC112B02F068FF53EC192B03F0F9
:102DA000BFF85CD24FF4FA7001F03CFE0A20C5F87F
:102DB000080154E08148E8226946E83802F05FFEE5
:102DC0004DE0D5F89801012849D1D5F8B400401C50
:102DD000C5F8B400002022F071F896ED320B53ECE8
:102DE0001A2B51EC100B02F040FF03F067F83A90F9
:102DF00096ED340B53EC1A2B51EC100B02F035FF0F
:102E000003F05CF83B9096ED360B53EC1A2B51EC2B
:102E1000100B02F02AFF03F051F83C9003213AA86E
:102E200021F0B0FF96ED300B53EC1E2B51EC100B44
:102E300003F08EF811D29FED6C0A6049E839F0EE8C
:102E4000400A0846FEF7FFF95C483946E838FFF7C4
:102E5000CBF8B0EE408AF0EE608A85ED408B208E94
:102E6000564FC0050CD5B4F87400C00508D507F15D
:102E7000E800FFF7EAFDB0EE408AF0EE608A01E07C
:102E80009FED4C8B97ED300B1FEDCD1B51EC100BD4
:102E900053EC112B03F044F831D3484940AAC83110
:102EA00089464648FEF771FC00287CD0D4F8AC0077
:102EB00002F0D2FF41EC100B53EC102B9FED4B0BAB
:102EC00051EC100B02F043FF41EC1F0B4846FFF79B
:102ED00004FDB0EE409AF0EE609A53EC1F2B51ECDB
:102EE000190B03F035F80BD29FED420B51EC180B88
:102EF00053EC102B03F014F802D2FFF76EFEDBE167
:102F000053EC1F2B51EC190B03F00AF851D251EC82
:102F1000180B9FED3A9B53EC192B03F001F8F5D2F7
:102F200097ED300B9FED371B51EC100B53EC112B31
:102F300003F00EF8EAD296ED300B53EC1D2B51EC5A
:102F4000100B02F0EDFF7CD149461C48FFF74CF80E
:102F5000B0EE408AF0EE608A85ED408B97ED309BB5
:102F600053EC1B2B51EC190B02F079FE53EC192B8F
:102F700002F07BFE41EC190B53EC1C2B51EC180BAF
:102F800002F073FE53EC192B02F0E1FE41EC100B42
:102F90001EF0CCF9B0EE408AF0EE608AD5F8E80079
:102FA00002F0ABFF00E088E195ED381B53EC112BEC
:102FB0002CE078E10000000000000840C88D0120EE
:102FC000988F01200080FFFF000000000000F03F0C
:102FD0000000000000000040000000000000F04081
:102FE0000000000000409F406666E63E9A9999996D
:102FF0009999A941000000000000F83F000000007E
:10300000000010400000000000003E4002F02DFED5
:1030100053EC182B02F084FFFFF46FAF9DED400BD3
:1030200049464046FDF7C4FF02283FF466AF00283A
:103030007ED1D5F898010128FAD1002021F03EFF79
:1030400000E02FE097ED320B53EC1A2B51EC100BF4
:1030500002F00BFE02F032FF3A9097ED340B53EC86
:103060001A2B51EC100B02F000FE02F027FF3B90F0
:1030700097ED360B53EC1A2B51EC100B02F0F5FDCB
:1030800002F01CFF3C9003213AA821F07BFE0120B6
:1030900021F0A8FE1920009001900290684621F0CE
:1030A00097FEF6E0D5F8B40002F0D6FE97ED301B9F
:1030B00053EC112B02F04BFE9FEDE71B53EC112B51
:1030C00002F046FFA8D34946E548FEF78DFF97ED8D
:1030D00030DBB0EE408AF0EE608A53EC1B2B51ECF3
:1030E0001D0B02F0BCFD53EC1D2B02F0BEFD41ECAC
:1030F0001B0B53EC1C2B51EC180B02F0B6FD53ECE0
:103100001B2B02F024FE41EC100B1EF00FF9B0EE69
:1031100040BAF0EE60BAD5F8E80002F0EEFE95EDA8
:10312000381B53EC112B02F0A0FD53EC1B2B00E0DD
:1031300087E002F0F5FEC5D39DED400B49464046C1
:10314000FDF736FF00287CD196ED361B97ED360B48
:1031500053EC112B51EC100B02F081FD41EC100BE4
:1031600053EC102B02F081FD96ED341B97ED340BE0
:1031700041EC1B0B53EC112B51EC100B02F06FFDCB
:1031800041EC100B53EC102B02F06FFD96ED321B4F
:1031900097ED320B41EC1C0B53EC112B51EC100B47
:1031A00002F05DFD41EC100B53EC102B02F05DFDC5
:1031B00053EC1C2B02F0B2FC53EC1B2B02F0AEFCC8
:1031C00041EC100B1EF0B2F8B0EE40BAF0EE60BA6F
:1031D000D4F8AC0002F040FE53EC1B2B02F045FD8E
:1031E0009FEDA01B53EC112B02F03FFD41EC1B0B9C
:1031F00053EC192B02F0ACFE1AD39FED9C0B51EC53
:103200001B0B53EC102B02F0A3FEBFF476AED5F8E7
:10321000B40002F021FE97ED301B53EC112B02F0AD
:1032200096FD9FED941B53EC112B02F079FEECD22E
:10323000D5F8980101287FF460AE002021F03EFE11
:1032400000E039E085ED408B97ED320B53EC1A2B03
:1032500051EC100B02F009FD02F030FE3A9097EDB0
:10326000340B53EC1A2B51EC100B02F0FEFC02F065
:1032700025FE3B9097ED360B53EC1A2B51EC100BBF
:1032800002F0F3FC02F01AFE3C9003213AA821F070
:1032900079FDF7EE000A9FED790A7149A1F1E80086
:1032A000FDF7D1FF29E697ED300B53EC1E2B51ECC7
:1032B000100B02F04DFEF5D3002043B0BDEC108B97
:1032C000BDE8F08370B56E4C0546D4F80C0110B91A
:1032D000284600F091F8D5F8B01044F620608142FD
:1032E0000ADAD4F8102111448142C4F810114FF0C9
:1032F000000005DBC4F810012846BDE8704085E4F5
:1033000070BD04224FF4C871AFF2470021F0A6BB94
:10331000AFF24F0021F056BF514810B5E821E83810
:1033200002F0D4FBFFF759FC4FF4D471544802F07B
:10333000CDFB534CB7EE000A04F5907084ED3A0AC9
:10334000FDF78BFA0A20C4F87001B2EE000A84ED92
:10335000570A1E209FED4B0AC4F87C0184ED620AD7
:103360009FED490A84ED610A9FED480A002084ED33
:10337000630A10BD10B5FFF7CFFF002805D1AFF2EB
:103380007D00BDE8104021F029BC10BD10B5AFF2A2
:10339000CB0021F017FFAFF29500BDE8104021F0FF
:1033A00043BF30B50022C2EBC20331F9124030F9FD
:1033B0001350AC420ADD02EB42040D8820F8245081
:1033C00000EB84044D8865808D88A58000EB430365
:1033D00031F91240B3F906309C4209DA02EB42039C
:1033E00000EB83030C88DC804C881C818C885C811A
:1033F000521C032AD7DB30BD70B5214DD0F8AC206C
:103400000446EAB1D3170020192102F0E6FA45F884
:10341000AC0F54F8AC2F0020D317052102F0DDFAD1
:10342000686022680020D317962102F0D6FA02F0D5
:1034300013FDC5E90D01AC3D0120C5F80C0170BDBF
:103440006FF00040C5F8AC009FED110BC5F8B0005F
:1034500085ED380BF0E700000AD7A3703D0AE73F7F
:10346000C88D0120000000000000103E0000000098
:1034700000000440333333333333C33F00000000D4
:10348000988F0120CDCCCC3E3333333F9A99193FEE
:103490000000C0FFFFFFDF4110B5FF49C4074FF038
:1034A00040434FF0804205D08B66CB66C1E91C32A9
:1034B0008A67CA67840709D5C1F80031C1F80431A9
:1034C000C1E94232C1F81021C1F81421400709D5E1
:1034D000C1F89831C1F89C31C1E96832C1F8A8211E
:1034E000C1F8AC2110BD2DE9F14F002082B0824619
:1034F00081460298806F00287ED000220020401C68
:103500000428FCDB029800EBC203D3E90010A1FB06
:103510000167D3E9065400FB017701FB0077AB4656
:10352000AD1BCDE900670326A5FB06C8A64664EBE4
:10353000070404FB0684002705FB0745DDE9006757
:103540001CEB06047D41A4FB016705FB017504FB30
:103550000055D3E90C47341B65EB0705CDE9004561
:103560005D46A5FB05670324A6FB04580EFB0B77FD
:103570000BFB0E7707FB04844FF0000C06FB0C449A
:10358000D3E91263761B63EB04034C18A4FB017CA4
:1035900040EB000505FB01C504FB0055A7FB014CF2
:1035A00005FB01C507FB0055A4FB017C05FB01C51C
:1035B00004FB0054F6196341DDE90045AD0045EA1E
:1035C0009475A400A4FB017C05FB01C104FB00145D
:1035D000F01B73EB040103D50023404263EB0101B0
:1035E000BAEB000479EB010301DA82468946521CEA
:1035F000032A83DB504600E016E0494602F016FC41
:1036000000EE900AA54890ED0E1A80EE810A10EEA9
:10361000100A02F032FCA04AD2F80C2203B0920049
:10362000BDE8F04F02F019BA002003B00146BDE832
:10363000F08F2DE9F14F0020009A0146926FE2B31E
:1036400000240022521C042AFCDB009A02EBC40571
:10365000AA46D5E90029A2FB023CD5E906769E469A
:10366000FB1A0325A3FB057809FB02CC02FB09CB5F
:1036700066EB0B0606FB05854FF0000C03FB0C56B2
:1036800017EB0E03A3FB027C46EB0B0606FB02C204
:1036900003FB0923DAE90C25BA1AAB4103D500254F
:1036A000524265EB0303851A71EB030501DA1046FC
:1036B0001946641C032CC4DB00E015E002F0B6FBE5
:1036C00000EE900A754890ED0E1A80EE810A10EE19
:1036D000100A02F0D2FB704AD2F80C22BDE8F84F73
:1036E00002EB420202F0B9B900200146BDE8F88FB2
:1036F0002DE9FE43684D80460024D5F810626F46E0
:1037000005EBC4013246D1E9020102F097F905EB5D
:103710008401B1F884100904401847F8240004F12A
:103720000104032CECDB5C489821083002F0CEF950
:103730000120FFF7B1FE95F8E8010199042807D1AF
:10374000D5F81802B0F5201F02DD052085F8E80144
:10375000524C0098636AC11A01D40E4600E01E1A4A
:103760000198A26A801A01D4074601E0019FD71B85
:10377000BE4206DD002901D4084606E00098181A6A
:1037800003E0002801D50198101A029AE16A521A42
:1037900001D4134601E0029BCB1A834205DB002AC9
:1037A00001D4104601E00298081AD8F8241020F03D
:1037B000ACFED5F81812814206DD0321684621F0DF
:1037C00013FC022021F078FC009860620198A0624E
:1037D0000298E062BDE8FE83304AC2E90201704708
:1037E0002E4AC2E9060170472C4AC2E9040170471B
:1037F000294AD2F8E0310360D2E97402C1E900023B
:103800007047254AD2F8E0310360D2E97602C1E977
:10381000000270472DE9FE4781460020EA468A6F84
:1038200022B901EB800339F91020DA6701EB80023D
:1038300039F91030D46F1D1B4AF82050136E9D4289
:1038400000DD1566D36E9D4200DAD56601230024A3
:1038500022464FEAE578A3FB056704FB057403FBEA
:103860000844334602EB420601EBC60606EBC00CE9
:10387000DCE90076FF186641CCE90076521C042A88
:10388000E9DB401C0328CADB886F401C88670120E5
:10389000C1F89000BDE8FE8740910120A09301206F
:1038A00030B5002302EB830550F823405B1CEC6627
:1038B000032BF7DBC2F88810916F79B1002102EB7E
:1038C000810450F82130E56F5B1B00D55B42256E0B
:1038D0009D4200DA2366491C0329F0DB906F401CEF
:1038E00090670120C2F8900030BD10B500210B4652
:1038F00000EB8102491CD46ED46713660329F7DB01
:10390000D0F8881040F8783FC0E9051310BDD0E921
:103910002210081A70470146D1E91802824200DBE2
:103920001046896E814200DB084670472DE9F0475A
:103930008046501E012686408946C2F12007404637
:1039400002F08BF804460D46404649463A4602F0DE
:1039500075F83A4602F081F8B04203DD641C45F187
:10396000000505E07142884202DA641E45F1FF3528
:1039700020462946BDE8F087F749002008624862E2
:103980008862C862086448648864C86408634863DD
:103990008863C863086548658865C865704730B541
:1039A000EE4AD2F8483223B1D2E990542D1A8C4114
:1039B00001DAC2E990015B1CC2F8483230BD30B573
:1039C000E64AD2F8583223B1D2E994542D1A8C41E8
:1039D00001DAC2E994015B1CC2F8583230BD30B53F
:1039E000DE4AD2F828322BB1D2E98845041B71EBAC
:1039F000050401DAC2E988015B1CC2F8283230BD37
:103A000030B5D64AD2F838322BB1D2E98C45041BF6
:103A100071EB050401DAC2E98C015B1CC2F8383293
:103A200030BD2DE9F0470246CC48012508308046DC
:103A3000C36E016E046FC91A436E1B1B8B4200DB01
:103A40001946836ED8F87400181A884200DB0146C4
:103A5000C14F6037F86B884204DA002400F010FA96
:103A6000204687E7108E0124BC4EC0054FF00001B0
:103A70000ED5D6F880303068834209DBB2F8742066
:103A8000D20506D5D6F8B021824201DB052400E03C
:103A90000C4674B3600719D5AF48C8388146FFF7A4
:103AA00022FD000D40EA01300915C6E97601D7E98B
:103AB00004321B1A8A4102DA0025FFF7A1FF982180
:103AC000484602F003F80420FFF7E6FCE0070ED0BA
:103AD0004046FFF708FDC6E97C01D7E906340246F7
:103AE000181A8C4103DA00251046FFF778FF2846A4
:103AF00040E7FFE702203DE71EB5044690F830009E
:103B0000C0F38110032804D19449201D0831FFF728
:103B100081FE94F87400C0F38110032805D18E490A
:103B200004F14800C839FFF775FED4F8B8008B4A95
:103B3000C0F38113A0326946032B0FD0C0F34110AC
:103B400003281AD1002004EB8003D3F8A0309B1384
:103B500041F82030401C0328F5DB09E0002004EB8D
:103B60004003B3F98C3041F82030401C0328F6DBC9
:103B70006846D4F8C010FFF793FE1EBD2DE9F0474C
:103B800005460020296BCA056AD501F0500140297D
:103B900000D1012095F8741001F05001402900D1A6
:103BA000012095F8B8106D4C01F05001402900D06B
:103BB00030B100F065F90020C4F8E00184F8E801B4
:103BC000654ED4F80812E86A6036814228D0C4F8FD
:103BD00008020A28306B0CDA40002060716B00EE9E
:103BE000100A491CC4F80C12B8EEC00A1DF0DBFB29
:103BF00005E02060706BC4F80C0296ED0E0A84EDAF
:103C0000850AD4F80C02C0F11000C4F810024FF479
:103C10008040C4F8180296F8341019208840F063E8
:103C20002846FFF769FF94F8E811DFF8309105277F
:103C30004FF0020809F1A009072911D2DFE801F0CD
:103C4000041127305E7E8500D4F8E001411CC4F8E1
:103C5000E0110A2804DB00F013F9012084F8E801E0
:103C600086E0D4F89800012810D12846FFF7D9FE45
:103C700010B1012803D004E084F8E87101E084F871
:103C8000E8814846FFF731FEFFF776FE70E003203B
:103C900084F8E8012846FFF72BFD00F0F1F867E013
:103CA0002846FFF7BEFEE8B3012861D1B5F8B80099
:103CB0004FF00403C00515D54846FFF72CFE01461A
:103CC000C017C4E97410D6E902C2BCEB01018241FD
:103CD00002DA84F8E87108E04846FFF718FE316A16
:103CE000884202D384F8E83124E0F4E97601FFF752
:103CF00066FED4E90601FFF752FE39E0B5F8B800D8
:103D0000C0050BD54846FFF706FE0146C017C4E9BB
:103D10007410D6E90232591A824108DB2846FFF7AF
:103D200080FE00E003E010B1012803D020E084F819
:103D3000E8711DE02846FFF7DBFCD6E7062084F893
:103D4000E801012021F0B8F90DE02846FFF769FEEF
:103D5000012805D038B10BE04093012040910120AB
:103D600084F8E88104E000F08BF84846FFF7BDFDD9
:103D70000020FFE510B500214010002802D001F11D
:103D80000101F9DC4FF0010001F1010100FA01F03D
:103D9000434C00EE100AC4E90C01B8EEC00A1DF055
:103DA00002FB84ED0E0A94F8341019208840E06379
:103DB00010BD10B54FF418713A4801F087FE40214C
:103DC000374801F083FE0720FFF766FB344840F2D6
:103DD000DC510022C0E906121421C0E902124FF49E
:103DE0001671C0E9041230492E4C01620120C4F85A
:103DF000E4011920FFF7BEFF0020C4F8080210BD3F
:103E000010B54FF41871274801F060FE0720FFF746
:103E100043FB244801210022C0F8E41180F8E81196
:103E20000321012021F03AF907226421AFF2B320E7
:103E3000BDE8104020F012BE10B5012021F03CF981
:103E4000AFF2C720BDE8104021F0BCB910B5FFF7B4
:103E5000B0FF002805D1AFF25700BDE8104020F0B8
:103E6000BDBE10BD10B5FFF7E7FFAFF26B00BDE8B8
:103E7000104021F0D9B90B49D1E97C017047704756
:103E8000084810B59821083001F020FE9821074815
:103E900001F01CFEBDE810400520FFF7FDBA000050
:103EA000A0930120409101200008AF2F78920120BB
:103EB000F0B516462DED028B85B01F460C46054623
:103EC0003C22FE49A1F10C0001F0D9FDFB49502232
:103ED0004C31A1F1100001F0D2FDF84996E80D0037
:103EE0000C3901F13C0C8CE80D005CCC01F1980020
:103EF00080E85C009FEDF28AD1F82401401CC1F8F3
:103F00002401062802DD0620C1F82401C0F10606BE
:103F10000C46A0351AE004EB06116A4638464831D3
:103F200020F05EFB06EB460004EB80016A46284663
:103F30001FF0C6FCF0EEC00AB0EEC81AF4EEC10ADB
:103F4000F1EE10FA01D2B0EE408A761C062EE2DBCA
:103F500005B0B0EE480ABDEC028BF0BD70B514465A
:103F60002DED048B0E46B0EE408A00259FEDD59ACC
:103F7000416BF0EE498A002904DBD0F8BC0003282D
:103F800000D10125CD492422B431081F01F077FD6D
:103F9000CA480C38002380ED388A00EB83015B1C93
:103FA00091ED2F0A0A2B70EE288AF6DBB2EE040A96
:103FB000C822C8EE800AC0ED390A9FEDC31A322E1E
:103FC0001DDB9FEDC20AC0F81C21B6F57A7FC8EE52
:103FD000001A00EE104AB8EEC00A61EE801A81EEB7
:103FE000810A2FDB9FEDBA0AC8EE001A00EE104AD4
:103FF000B8EEC00A61EE801A81EE810A22E041F239
:10400000883194FBF1F14942D0F81C3101EB810178
:10401000C918C0F81C1102D50021C0F81C119FED71
:10402000AD0AC8EE001A00EE104AB8EEC00A61EE02
:10403000801A81EE810A29B9D0F82811012901D10D
:10404000B0EE490AD0F8201109B1B0EE480AA249F1
:104050008C4201D1B0EE480AB5EEC00AF1EE10FA7A
:1040600001D0C0ED3A0A90ED3A1A9C4B71EE600A0D
:10407000F0EEE00A10EE901A994227DDD0ED2E0AFC
:10408000F5EEC00AF1EE10FA20D1002D1ED0C0F8D6
:104090001C21204601F0E0FE41EC190B18EE100A3D
:1040A00001F02BFF9FED8E1B53EC112B01F04FFE07
:1040B00053EC192B01F0D9FD9FED8B1B53EC112B09
:1040C00001F045FE01F05CFF00EE100ABDEC048B30
:1040D00070BD2DE9F04F04462DED048BA9B09FED86
:1040E000799A4FF0000A754ECDF810A00C3ECDF82D
:1040F00014A0CDF818A0D6F82011022003297DD0F5
:1041000000209FED7B8A20AD06EB800191ED2A0A0D
:1041100005EB8001401CB8EEC00A042820EE080A16
:1041200081ED000AF0DB0FA81FF09CFD24A81FF012
:1041300003FE624B24AA9C330FA920462793FFF766
:10414000B7FEF0EE408A04F118001FF05DFE810911
:104150006148D6F83021824200DB0246B0EE680AA0
:104160002046FFF7FBFED6ED3B0AB3460BA820EE38
:10417000200A86ED2E0A1FF075FD13A90BA820F06A
:1041800000FC4E480FAAF0300BA9064620F028FA92
:1041900031460BA820F001FA00210DF13C080DF189
:1041A0004C090DF1100E00221346104601EB410C94
:1041B0000CEB000759F8276008EB8007401C7F686C
:1041C0000328C6FB0723F3DB900F40EA83004EF879
:1041D0002100491C0329E6DBDBF820015E460028AC
:1041E0006AD05046CDF818A0404200EE100AB8EE52
:1041F000C00A20EE080A1CF03BFD00E0A2E08DEDB5
:10420000000A8DED019A8DED029A0698404200EE6B
:10421000100AB8EEC00A20EE080A1CF0BFFF8DEDB0
:10422000030A9DED060ADFED330AD6F83001B8EE39
:10423000C00A41F2883190FBF1F080EE201A00EEC6
:10424000100AF8EEC01A81EE210AB0EE001AC0EE94
:10425000011ABDEEE10A10EE101A490000EE101A24
:104260000691B8EEC00A60EE200A00EE100AB8EE21
:10427000C00A20EE800ABDEEC00A8DED060AB8EE37
:10428000C00A20EE080A1CF0F3FC8DED070A8DED44
:10429000089A8DED099A9DED060AB8EEC00A20EE47
:1042A000080A1CF07BFF8DED0A0A1CAA694620A8AB
:1042B00020F0EFF96A461FE04BE00000EC9301208C
:1042C000002474490000000000409C450000484361
:1042D000000048420000C84340420F000E2DB23D8E
:1042E0000000000000007940000000000088B3409A
:1042F00000008030E102374707A91CA820F0C9F967
:104300006F46DFED958AD4F8BC00002813DD00204D
:1043100007EB800191ED000A05EB800181ED000AB9
:1043200020EE280A06EB8001401C0428BDEEC00ADE
:1043300081ED2A0AECDBD4F8BC00F6EE009A0328E3
:104340000CD108E0C6F8200129B0BDEC048BBDE813
:10435000F08F069848E700F03DFEE0B396ED2A0A9C
:10436000B8EEC00A20EE080A8DED1C0A96ED2B0A65
:10437000B8EEC00A20EE080A8DED1D0A96ED2C0A53
:10438000B8EEC00A20EE080A8DED1E0A96ED2D0A41
:10439000B8EEC00A20EE080A8DED1F0AD6F82001FB
:1043A0000028D1D096ED2E0A20EE290A1CF060FCE0
:1043B00020EE280ABDEEC00A86ED2A0AC6F8ACA097
:1043C000C6F8B0A096ED2E0A20EE290A1CF0E6FEF3
:1043D00020EE280A00E004E0BDEEC00A86ED2D0ABA
:1043E0002BE096ED2E0A20EE290A1CF041FC8DED03
:1043F000070A8DED089A8DED099A96ED2E0A20EEAA
:10440000290A1CF0CBFE8DED0A0A6A4607A920A8EE
:1044100020F03FF9684620F0F9F9002007EB800111
:1044200091ED000A06EB8001401C20EE280A0428CA
:10443000BDEEC00A81ED2A0AF0DBD4F8C01027983F
:1044400020F0D6FCD6F820010028AAD0401E79E73B
:1044500070B590F8B810414ACC064FF000034FF009
:10446000030101D4C2E94813B0F82041E40509D49E
:10447000048EE40503D5B0F87440E40502D4C2E923
:1044800048131AE0D2F8341139B1D0E93013C91AFF
:104490004FF47A73B1FBF3F105E0D0F8B01044F6B5
:1044A0002064A14202DBC2F830110AE0D2F82C519C
:1044B0002944C2F82C11A14201DA002070BDC2E9E2
:1044C0004B31FFF706FEF8E710B54FF49C71234817
:1044D00001F0FCFA214C4FF080400021C4F8FC00B0
:1044E00044F8A80F1D48A83020F082FC4FF47A70E1
:1044F000B7EE000A606784ED110A10BD174880ED21
:104500003B0A002070471549C1F828010020704778
:104510001249C1F834010020704704224FF416718B
:10452000AFF2D30020F09ABAAFF2DB0020F04ABE1F
:1045300010B5FFF7C9FF09490020C1F82801C1F8EB
:104540003401AFF22900BDE8104020F047BBAFF2C4
:10455000350020F069BE00000000804EE09301208D
:104560001FB501461022684601F089FAF7489DE818
:104570000E0080E80E00F6499DF80C0081F8B001AD
:10458000002004B010BD1FB5F0490EC98DE80E0023
:10459000EF49102291F8B0118DF80C10694601F026
:1045A0006EFA0020EDE72DE9F04F91B000251821BB
:1045B000684601F08BFA0024182106A801F086FA5B
:1045C000E348A046C14690F8C01101297ED1D0F839
:1045D000B8B1D0F8B4A10022C2EBC20000EB400198
:1045E000DB4800EB810E9EF850000F90002864D04D
:1045F00000215FE0DDE900076D1C5EF821300E93BD
:10460000181847EBE376CDE900060EEB8100EDB21A
:1046100043690D93DDE9027C4FEAE376DB1946EB53
:104620000C06CDE90236836ADDE9047CDE170C93C3
:10463000DB1946EB0C06CDE90436C06B0E9BDDE9B9
:10464000067C83FB0063360C46EA0346F6194CEB06
:104650002343CDE906630D9BDDE9087C83FB006302
:104660004FEA164646EA0346F6194CEB2343CDE9DA
:1046700008630C9BDDE90A7C83FB00634FEA164666
:1046800046EA0346F6194CEB2343CDE90A6380FB67
:1046900000634FEA164646EA034616EB080849EB64
:1046A00023490444584501DA834602E0504500DDC1
:1046B0008246491C0F9888429CDC521C052A8BDBE1
:1046C000A348AAEB0B01D0F8BC0100E056E0814200
:1046D00054DBA5FB0823E0170026109006FB0830EA
:1046E00005FB0900CDE90C2084FB0420110C41EAF4
:1046F00000410014CDE90E0106A800EBC601D1E986
:104700000003A0FB05B203FB0522002100FB012CE6
:10471000684600EBC601D1E90001A0FB043701FBAC
:104720000471109A00FB0210190C41EA00490CAA0E
:104730004FEA204A92E889000F9983EA070880EA45
:10474000010252EA080212D0421A63EB0703BBEBE4
:1047500009006CEB0A0C4FEA0C4141EA10410004DD
:1047600001F03BF97A4901EB8601C1F8A401761CFE
:10477000032EC1DB7648012180F8B01111B0002072
:10478000BDE8F08FF8B5724D0E460446D5E96D01CF
:10479000091A052291FBF2F1301A90FBF1F0C0B238
:1047A0008DF80000042801D92020F8BDC0EBC0001E
:1047B00000EB400005EB800191F85000052816D071
:1047C000421C81F850209DF80010C1EBC10101EBA3
:1047D000410105EB810202EB8001CE63236842F8C0
:1047E000203060684861A06888620020F8BD01F14F
:1047F0004003181F1022194601F041F99DF80000EE
:104800001022C0EBC00000EB400005EB8000011D52
:1048100001F035F99DF800001022C0EBC00000EB5C
:10482000400005EB800000F11801143001F027F979
:104830009DF800001022C0EBC00000EB400005EB2B
:10484000800000F12C01283001F019F90420BAE7AA
:1048500030B585B0044603A968461FF0ABFA04A83A
:104860001FF070FB02282BD0D4F8E4000399401A03
:10487000374991F8B02112B308B3D1F8A421009CB4
:1048800080FB0232150445EA134222440092D1F81B
:10489000A821019C80FB0232150445EA1342224400
:1048A0000192D1F8AC11029A80FB0110030443EA93
:1048B0001140104402900321684620F095FB0CE063
:1048C000606B032809D11FF087FA30B1684603995D
:1048D000FFF758FF08B9FFF766FE05B0002030BDAE
:1048E00010B54FF4E2711A4801F0F0F81848194970
:1048F000C0F8B4114FF4AA01C0F8B8114FF4A021C8
:10490000C0F8BC11012180F8C011002010BD104971
:10491000C1F8B801002070470D49C1F8B40100206A
:1049200070470B49C1F8BC010020704758B10849D5
:10493000D1F8A4210260D1F8A8214260D1F8AC11CD
:10494000816000207047052070470000BC96012060
:10495000189501200000D8FF2420F5E720B12D494B
:1049600081F8C0010020EFE72420EDE7294B93F800
:10497000B1010028E8D0D3E96D10401A052190FB61
:10498000F1F00020C0EBC00101EB410103EB81011C
:1049900091F8502022B1002100E0491C8A42FCDC41
:1049A000401C0528EEDB0020CEE7082296211A489D
:1049B00020F054B8184820F005BC10B5FFF790FF60
:1049C0004FF49A7310221549154820F0BFF820B90A
:1049D000AFF2290020F002F908B1012010BD0D4905
:1049E000012081F8B101002010BD10B5094C94F8E8
:1049F000B101002808D0084820F0E4FBAFF25500D0
:104A000020F012FC08B1012010BD002084F8B10193
:104A100010BD000018950120514801088745010884
:104A200061450108002803DDFE490122C1E9200299
:104A30000020704710B5B821FA4801F047F89FED03
:104A4000FA0AF84880ED030A9FEDF80A80ED020AA1
:104A50009FEDF70A4FF0804180ED000AB3EE0E0A99
:104A600080ED010A41664FF4FA619FEDF20AC167D9
:104A700080ED270A002010BD70B5EA4C002594EDAA
:104A8000001AB4EEC01AF1EE10FA17D394ED011A21
:104A9000B4EEC01AF1EE10FA10DC2069012817D12B
:104AA00094ED030AB4EEE00AF1EE10FA06D394EDA9
:104AB000020AB4EEE00AF1EE10FA09DD606F20B9E7
:104AC000D848A16D183020F093F90120C4E91D05E4
:104AD000D4E91E01884204DB606F012800D1E5653E
:104AE000656770BD10B504462DED028BB0EE408AAF
:104AF0001FF0C4F8CB49002220B918EE100ACE4BA3
:104B0000984202DD0A614A6102E00869002808D182
:104B1000486920444861B0F5FA7F02DD0120C1E90F
:104B20000402BDEC028B10BDF0B58DB00D461446ED
:104B3000064669461FF025FF09AA314628461FF0A0
:104B40004FFD294630461FF028FD0021EC460DF1AF
:104B5000240E00231A46184601EB41073D180EEBC0
:104B600080065CF825507668401CC5FB0632032899
:104B7000F4DB980F40EA820044F82100491C032925
:104B8000E7DB0DB0F0BDA7490020C1F88C007047ED
:104B900010B590ED000AD0ED010AB8EEC00AB8EEEB
:104BA000E01AF8EEE00A20EE000A01EE200AD0ED4D
:104BB000020AB8EEE01AF8EEE00A01EE200A1CF054
:104BC000F2FBDFED9E0A20EE200A10BD002295497F
:104BD000012330B1012810D0C1F8983041F88C2F52
:104BE00031E081ED280A81ED290A9FED950A81EDDA
:104BF0002A0AE1E924328A607047D1ED280A91ED52
:104C0000271A70EE600AF0EEE00AF4EEC10AF1EE47
:104C100010FA16D2D1F89400401CC1F89400D1EDDE
:104C2000290A312830EE800A81ED290AE4DD0220CC
:104C3000DFED840AC1F8900080EE201A81ED2A1A77
:104C4000704741F8902F4A6070472DE9F047984629
:104C50002DED088B8AB017468A4604469FED788A68
:104C60000025704E039504950595D6F88800002818
:104C70007DD01FF0C1F810B103A81FF08DF8D6F851
:104C800080004FF00109002817DDC6F884901FF05E
:104C9000B3F848B103A81FF0B7F88009B0F5C87F92
:104CA00002D2D6F8800004E0D6F88000001BC6F8D7
:104CB0008000002801DCC6F884501FF05DFB00284E
:104CC00055D000209FED5D9A57F8201000EE101A85
:104CD00058F82010401CB8EEC00A032860EE090AFC
:104CE00000EE101AB8EEC00A20EE800A00EE098A23
:104CF000EADB3846FFF74CFFF0EE408A4FF07E5774
:104D000088EE280AF7EE00AA10EE100AB84201DD7C
:104D1000B0EE6A0A10EE100ADFF82C81BFEE00BA7E
:104D2000404501D9B0EE4B0A1BF08AFDD6F88C0045
:104D3000B0EE40AA98B196ED000AB4EEE80AF1EEA2
:104D400010FA0CDD96ED010AB4EEE80AF1EE10FA65
:104D500005D2B0EE4A0AD6F89000FFF737FF684652
:104D60001FF0DAF82F490C22AC31684600E0E2E08F
:104D700000F0BEFE18B9D6F8980001286BD129487A
:104D80009DE80E00AC3080E80E00009818B901983C
:104D900008B90298F0B36846FFF7FAFEB0EE408A11
:104DA000B5EEC08AF1EE10FA55D0F2EE049A38EE64
:104DB000690A20EE000A1CF0F6FA86ED010A38EEC8
:104DC000290A20EE000A1CF0EEFA86ED000A9DED9D
:104DD000020AB8EEC00A60EE090AB0EE480A80EE98
:104DE000808A18EE100AB84201DDB0EE6A8A18EE29
:104DF000100A404501D9B0EE4B8AB0EE480A1BF0CC
:104E00001FFDD6ED270A30EE600A86ED020AB0EEED
:104E1000480A00E024E01BF013FDD6ED270A30EE2F
:104E2000200A14E0DC9601200000B4420000B4C265
:104E3000000070427B142E3E00401C46000080376C
:104E40000000000000004842000080BF03E086ED43
:104E5000030AC6F88C50DFF88481F16D21B32FE08E
:104E60001FED0D0A86ED000AB3EE0E0A86ED010A6B
:104E7000D6F89800012808D01FED140A86ED020A22
:104E80001FED170A86ED030AE5E796ED2A0A96ED6F
:104E9000271A70EE410A30EE010AC6ED020A86EDCD
:104EA000030AC6F89850D6E70027C6F85C9006EBD0
:104EB0000710414618301EF017FF7F1C042FF6DB49
:104EC000464906AA0C310F465046FFF72DFE3946DB
:104ED00050461FF062FB03A81EF096FF00EE100A7A
:104EE000DFED3F0A2046B8EE400A20EE200AFFF729
:104EF000F9FDF0EE4A0AB0EE680AFFF7BDFDD6E90B
:104F00001E01884201DA2044B067706F90B9306E9C
:104F100020443066B0F57A7F0CDD304930223039DC
:104F2000A1F11000356600F0AAFD2C48414610386A
:104F30001EF0DAFE706F0AB0BDEC088BBDE8F0879A
:104F400070B588B0044604A81EF0F6FED4E930011E
:104F5000451A68461EF086FE064604AB04F1A00220
:104F600069462846FFF771FE1FF054FF08B030462F
:104F700070BD04224FF49671AFF23B001FF06EBD7E
:104F8000AFF2430020F01EB910B5FFF753FD002823
:104F90000DD1124800215838C0F88C100121C0F8FA
:104FA0008810AFF23100BDE810401FF017BE10BDF1
:104FB00010B5AFF2730020F005F9AFF27B00BDE849
:104FC000104020F0FFB8054901205839C1F88C0085
:104FD0000020704701485838406F704734970120CF
:104FE0000000803CF0B51D462DED028B99B090ED90
:104FF000000AD0ED010A1746B8EEC00AB8EEE01A72
:10500000F8EEE00A0E4620EE000A044601EE200A01
:10501000D0ED020AB8EEE01AF8EEE00A01EE200A3E
:105020001CF0C1F9F0EEC00A10EE900AB0F18D4FFD
:105030007EDDD6ED000AB8EEE01ADFEDFE0A21EEC5
:10504000201A8DED041A96ED011AB8EEC11A21EE60
:10505000201A8DED051A96ED021AB8EEC11A21EE4E
:10506000201A8DED061A96ED031AB8EEC11A61EEFC
:10507000200ACDED070A9FEDF08A10AA8DED0C8A6B
:10508000D4ED000A0CA904A8F8EEE00A80EE801A1C
:105090008DED0D1AD4ED010AF8EEE00A80EE801ACB
:1050A0008DED0E1AD4ED020AF8EEE00A80EE801AB9
:1050B0008DED0F1A1FF0EDFA14A904A81FF079FA6C
:1050C0006A4614A910A81FF0E4FA9DED021ADDED5E
:1050D000010ADA4921EE010A00EEA00A10EE100AD8
:1050E000884202DA9FEDD60A11E010EE100AD54987
:1050F000884202DA9FEDD40A09E010EE100AD34983
:10510000884202DAB5EE000A01E09FEDD10A01EE15
:10511000907AB8EEE12ADFEDCF2A8DED088AC2EE53
:10512000221A21EE800A21EE001A8DED091A00E004
:1051300038E020EEC00A6A4604A98DED0A0A8DED1A
:105140000B8A08A81FF0A5FA6A4604A910461FF0AA
:1051500003FA68461FF006FBDDED000A9FEDBE0A6C
:1051600060EE800AFDEEE00AC5ED000ADDED010A01
:1051700060EE800AFDEEE00AC5ED010ADDED020AEF
:1051800060EE800AFDEEE00AC5ED020ADDED030ADD
:1051900020EE800ABDEEC00A85ED030A19B0BDEC11
:1051A000028BF0BD96E80F0085E80F00F6E72DE9C9
:1051B000F0410C462DED068B054690ED000AD0ED32
:1051C000010AB8EEC00AB8EEE01AF8EEE00A20EEE6
:1051D000000A01EE200AD0ED020AB8EEE01AF8EE5D
:1051E000E00A01EE200A1CF0DEF810EE100A4FF083
:1051F0007E5800264FF0804740453FDDD5ED020A3E
:10520000B7EE009AF8EEE00AC0EE808A39EE680A3E
:105210009FED89AAB5EEC00AF1EE10FA01DCB0EEFE
:105220004A0AF6EE009A20EE290A1CF0BCF8B0EE0D
:10523000408A38EE890AB5EEC00AF1EE10FA01DCB8
:10524000B0EE4A0A20EE290A1CF0ADF8F0EE408AD2
:1052500095ED000AB8EEC00A60EE000A95ED010A6D
:10526000B8EEC01AB8EEC00A41EE000AB0EE600A0D
:105270001CF099F810EE100A404503DCC4E90076F2
:10528000A66025E0DFED740A28EEA01ABDEEC11A73
:1052900084ED001A95ED011AF8EEC11A81EE801A1C
:1052A00021EE081A61EE200AFDEEE00AC4ED010AC3
:1052B000D5ED000AF8EEE00A80EE801A21EE080A29
:1052C000DFED660A20EE200ABDEEC00A84ED020A78
:1052D000E660BDEC068BBDE8F08170B590ED000A8C
:1052E000D0ED010A0546B8EEC00AB8EEE01AF8EEB5
:1052F000E00A0C4620EE000A01EE200AD0ED020A78
:10530000B8EEE01AF8EEE00A01EE200AD0ED030A4A
:10531000B8EEE01AF8EEE00A01EE200AB5EEC00A97
:10532000F1EE10FA07D84FF0804020600020606056
:10533000A060C86070BD1CF036F8B7EE001AC1EE70
:10534000000A9FED450A20EE800AD5ED000AF8EE2E
:10535000E00A60EE800AFDEEE00AC4ED000AD5ED39
:10536000010AF8EEE00A60EE800AFDEEE00AC4ED04
:10537000010AD5ED020AF8EEE00A60EE800AFDEEC1
:10538000E00AC4ED020AD5ED030AF8EEE00A20EEC9
:10539000800ABDEEC00A84ED030A70BD70B50446F4
:1053A00090F8300088B040067ED5A069002801DB67
:1053B000014600E041424FF480320026284D9142E0
:1053C0000BDAE169002900DA4942914205DA216AE3
:1053D000002900DA4942914267DB002800DA4042A6
:1053E0004FF4C80188420BDCE069002800DA404233
:1053F000884205DC206A002800DA4042884201DD4C
:10540000032000E00220A863696BA06A814242D0B9
:10541000686394ED0A0A9FED131AF8EEC00A80EE55
:10542000810ADFED110A20EE200A10EE100A00F0CA
:1054300064FD1BE0000080300000000017B7513908
:10544000A69BC43B0AD7233C8FC2753DCDCC4C3EB6
:10545000CDCCCC3E0014CD470000804E000080CE65
:1054600094970120002474490000004E9FEDFA1B20
:1054700053EC112B00F0F9FB9FEDF91B53EC112BB2
:1054800000F0F3FB9FEDF81B53EC112B00F05FFCD9
:1054900000F014FD28630496296BA0691FF035F80D
:1054A0000590296BE06901E022E023E01FF02DF870
:1054B0000690296B206A1FF028F807906A4604A915
:1054C000EB481FF08DF80098E94A800100900198A0
:1054D0006946800101900298800102900398800142
:1054E000039010461FF026F8E1490846FFF7F5FE45
:1054F00008B070BDAE63FBE770B504462DED048BBC
:105500008EB0D0F82001410676D5D94DD4F81011CF
:10551000D84B2A68891AD4F82C215A438A4201DAD6
:10552000032100E00221A963800504F5887602D5F5
:10553000CF493046B5E0002107A81EF03BFCCC491E
:105540000C223C3107A800F0D3FA20B9D4F8280186
:10555000A96D88427ED020886B4680B207AA616A16
:105560001EF006FA9DED000ADDED010AB8EEC00A54
:10557000B8EEE01AF8EEE00A20EE000A01EE200A8A
:10558000DDED020AB8EEE01AF8EEE00A01EE200ABC
:105590001BF009FFB0EE408A9FEDB70A68EE000AE3
:1055A0009FEDB61A80EE810ADFEDB50A20EE200AE3
:1055B000D4ED4A0AF8EEE00A60EE800A1FED571AB1
:1055C00080EE810AF6EE000A20EE209AB0EE490A3B
:1055D0001BF04EFBF0EE408AB0EE490A1BF0DEFDF8
:1055E00018EE100A4FF08041884206DA0020C5E923
:1055F00012102865686532E055E05FED690A68EED3
:10560000A00AFDEEE00AC5ED120A5FED6C0A20EE7D
:10561000200ADDED000AF8EEE00A60EE200A80EED6
:10562000881AFDEEC10AC5ED130ADDED010AF8EE98
:10563000E00A60EE200A80EE881AFDEEC10AC5ED90
:10564000140ADDED020AF8EEE00A20EE200AC0EEB0
:10565000080A00E00DE0BDEEE00A85ED150A07AB93
:1056600093E8070005F13C0383E80700D4F828011C
:10567000A8657F4903AA483130461EF0B1FF7C4837
:105680000AAA5C3003A904461EF0AAFF2146304650
:105690001EF083FF03AA0AA975481EF0A1FF7449F2
:1056A00003A8FFF71AFE0EB0BDEC048B70BD1FB54A
:1056B000044669466E481EF070FF6D4A6946203206
:1056C00020461EF08DFF6A491DCC103181E81D0077
:1056D0001FBD2DE9F0470446654E90F8740006F1B1
:1056E0005C0A06F12008012500F05001103692B046
:1056F00004F5887904F15C07402906D094F820016C
:1057000000F0500040280DD01DE031463846FFF72C
:105710004EFDB4F82001C0050CD5514648461EF098
:105720003CFF07E0514648461EF037FFB4F87400CE
:10573000C00508D569464E481EF02FFF424669460F
:1057400030461EF04DFFB4F82001C005204602D5BA
:10575000FFF7D2FE01E0FFF721FE32464449404602
:105760001EF03EFF94F8740040066FD5208EB4F80A
:1057700020110843C0056DD50FAA394630461FF0E9
:10578000DFF8D4E9172080FB0001C2FB0201626E42
:10579000374FC2FB02014FF08042801A71F10200C4
:1057A00014DB04A81EF078FBDDE9042080FB000177
:1057B000C2FB0201069AC2FB02014FF08042801A2E
:1057C00071F1020002DB0420B8630BE0B86B04281F
:1057D00008D041F28832022806D0032804D00128DC
:1057E00052D009E0002507E0E16E91FBF2F5012DB2
:1057F00000DA0125032800D0AD00224800244543EB
:1058000010980794800229461EF07FFE08900F989A
:105810002946404280021EF078FECDE909040BAA19
:10582000314607A81EF0DCFE32460BA910461EF0DA
:1058300081FE31460846FFF750FD69460C481EF0D0
:10584000ACFE4246694630461EF0CAFE12B0002049
:10585000BDE8F08720E00000112D4454FB210940F1
:105860000000000000007040000000000080664062
:105870009497012071981C00DB0F494000003443CD
:1058800000008037A69BC400E06E90FBF2F0012878
:1058900000DA01204500AFE7334619463846E26E8C
:1058A000FFF7A0FBC9E770B50446008EC105D4F828
:1058B000200107D4B4F87410C90503D4C10501D47C
:1058C000002070BDC0F30120032807D02046FFF759
:1058D00000FF2348A16B1FF063FCF1E704F588711A
:1058E0001F482EC980E82E00F3E71E481FF06ABC4F
:1058F0001B4810B56C21103800F0E8F818484FF03C
:1059000080411038016101600162C163C1650020FE
:1059100010BD184810B5082213A1006800F0E8F87F
:1059200008B1322010BD1322BDE81040C8210D4837
:105930001FF094B810B5FFF7DBFF002805D1AFF2D8
:105940002D00BDE810401FF049B910BD10B5054845
:105950001FF038FCAFF24500BDE810401FF064BCFA
:10596000A4970120A7580108654D504C20352E31D1
:1059700000000000140100202DE9F05F0546002022
:1059800092469B4688460646814640241BE02846B0
:1059900041464746224600F025FB53465A46C01A68
:1059A000914110D311461846224600F047F82D1AAF
:1059B00067EB01084F4622460120002100F03EF827
:1059C00017EB00094E41201EA4F10104DFDC48461C
:1059D00031462A464346BDE8F09F2DE9F0410024B8
:1059E000061B254671F1000605DA01240027D0EBDD
:1059F000070067EB0101161E73F1000605DA0027A8
:105A0000D2EB0702012567EB0303FFF7B5FF8646DC
:105A10000E4617469C46AC4204D00025D0EB050E3E
:105A200065EB010624B10020D2EB000760EB030C0C
:105A3000704631463A466346BDE8F081202A04DBD1
:105A4000203A00FA02F1002070479140C2F1200391
:105A500020FA03F3194390407047202A06DBCB1746
:105A6000203A41FA02F043EAE07306E041FA02F319
:105A7000D040C2F12002914008431946704710B54A
:105A8000431A934209D28318881803E010F8011DC5
:105A900003F8011D521EF9D210BD40EA01039B0715
:105AA00003D009E008C9121F08C0042AFAD203E093
:105AB00011F8013B00F8013B521EF9D210BDD2B2E1
:105AC00001E000F8012B491EFBD270470022F6E7E7
:105AD00010B513460A4604461946FFF7F0FF204664
